:020000040000FA
:100000000C94A9150C94DA150C94DA150C94DA15E5
:100010000C94DA150C94DA150C94DA150C94DA15A4
:100020000C94DA150C9468210C9468210C946821C6
:100030000C94DA150C94DA150C94DA150C94DA1584
:100040000C94DA150C94AB240C94DA150C94DA1594
:100050000C94DA150C94DA150C94D5220C941E210C
:100060000C94DA150C940DA60C94DA150C94DA1590
:100070000C94DA150C94DA150C94DA150C94DA1544
:100080000C94792F0C94DA150C94DA150C94DA157B
:100090000C94DA150C94DA150C94DA150C94DA1524
:1000A0000C94DA150C94DA150C944B2F0C94DA1589
:1000B0000C94DA150C94DA150C94DA150C941D2FA7
:1000C0000C94DA150C94DA150C94DA150C94DA15F4
:1000D0000C94DA150C94DA150C94DA150C94DA15E4
:1000E0000C94DA15084AD73B3BCE016E84BCBFFDA9
:1000F000C12F3D6C74319ABD56833DDA3D00C77FF8
:1001000011BED9E4BB4C3E916BAAAABE0000008090
:100110003F05A84CCDB2D44EB93836A9020C50B91F
:10012000918688083CA6AAAA2ABE000000803F004B
:100130000C9454160C94FA1C0C9432170C945A1606
:100140000C9466160C945E160C945D3C0C94931CF7
:100150000C9494160C948F160C94583C0C948C3C74
:100160000C94E61C0C94DC1C0C9419170C94A43C05
:100170000C9462160C94D23A0C94D63A0C94F8175C
:100180000C94681C0C9469160C94C81C0C946F1683
:100190000C947D160C9481160C94D21C0C94811C2A
:1001A0000C946D1C0C94873C0C949F3C0C94601C2C
:1001B0000C94A6170C9479160C948E170C943A3C58
:1001C0000C94771C0C94AF1C0C94703C0C9437A6C8
:1001D0000C948B1C0C9431170C94453C0C94B91C5A
:1001E0000C9473160C9499160C948B160C949B1CFF
:1001F0000C94743C0C9495160C94A51C0C94091644
:100200000C94F01C0C9487164E414E494E4954599B
:10021000494E46CDCCCC3D0AD7233C17B7D13877D1
:10022000CC2B329595E6241FB14F0A0000204100E7
:1002300000C84200401C4620BCBE4CCA1B0E5AAE31
:10024000C59D7400000000300E0100C00E0A005071
:100250000F1400D00F1E0060102800E01032007054
:10026000113C00F01146007012500000135A00803B
:1002700013640000146E0090147800101582009032
:10028000158C00101696009016A0001017AA00906A
:1002900017B4001018BE009018C8001019D20090B2
:1002A00019DC00101AE600801AF000001BFA00802A
:1002B0001B0401F01B0E01701C1801F01C220160D0
:1002C0001D2C01E01D3601501E4001D01E4A014088
:1002D0001F5401B01F5E0130206801A02072011080
:1002E000217C0190218601002290016026F401907A
:1002F0002A5802802EBC0250322003E0358403507D
:1003000039E803803C4C0445340045330045320055
:100310004531004530005A32005932005832005AF7
:1003200000590058004C4556454C494E4700434F34
:100330004D4D554E49434154494F4E004452595238
:10034000554E004552524F525300494E464F0045BC
:1003500043484F0020746F6F206C6F6E6720657884
:1003600074727573696F6E2070726576656E7465F0
:10037000640A0020636F6C64206578747275736919
:100380006F6E2070726576656E7465640A00FFFD9D
:10039000FCFAF8F6F4F2F0EEECEAE9E7E5E3E1E086
:1003A000DEDCDAD9D7D5D4D2D0CFCDCBCAC8C7C539
:1003B000C3C2C0BFBDBCBAB9B7B6B4B3B2B0AFADBB
:1003C000ACAAA9A8A6A5A4A2A1A09E9D9C9A999812
:1003D0009795949392908F8E8D8B8A898887868447
:1003E000838281807F7E7D7B7A797877767574735E
:1003F0007271706F6E6D6C6B6A6968676665646355
:100400006261605F5E5D5C5B5A595858575655543F
:1004100053525150504F4E4D4C4B4A4A4948474613
:1004200046454443424241403F3E3E3D3C3B3B3AD1
:1004300039383837363535343332323130302F2E83
:100440002E2D2C2B2B2A2929282727262525242326
:100450002322212120201F1E1E1D1C1C1B1B1A19BC
:100460001918181716161515141313121211111046
:100470000F0F0E0E0D0D0C0C0B0A0A0909080807C8
:10048000070606050504040303020201000046698D
:100490006C616D656E7420757365643A20005374E9
:1004A0006174733A20002C204C6F6E676573742062
:1004B0006A6F623A2000546F74616C2074696D65D4
:1004C0003A200053746174733A20002C204661690D
:1004D0006C65643A20002C2046696E697368656417
:1004E0003A20005072696E74733A2000537461743C
:1004F000733A200024F4D43050C38E20C2A2401797
:10050000828B7011127A910D816CD90AA861E10871
:10051000C7586607615143061E4B5D05C145A704D8
:100520001A411104093D9803713931034036DB0249
:1005300065339102D4305402802E1D02632CEE01EB
:10054000752AC501B028A001102781018F256401FB
:100550002B244B01E0223401AC211F018D200D0121
:10056000801FFC00841EED00971DDF00B81CD20028
:10057000E61BC600201BBC00641AB200B219A8001A
:100580000A19A0006A189900D117910040178B0032
:10059000B516840031167E00B31579003A15730044
:1005A000C7146F0058146A00EE13660088136300C6
:1005B00025135E00C7125B006C1257001512540021
:1005C000C111510070114F0021114B00D61049008C
:1005D0008D1047004610440002104200C00F40003A
:1005E000800F3E00420F3C00060F3B00CB0E380050
:1005F000930E37005C0E3500270E3400F30D3200E9
:10060000C10D3100900D3000600D2E00320D2D0017
:10061000050D2C00D90C2B00AE0C2900850C2900EF
:100620005C0C2700350C27000E0C2600E80B24007C
:10063000C40B2400A00B23007D0B23005A0B2100C8
:10064000390B2100180B2000F80A1F00D90A1E00E0
:10065000BB0A1E009D0A1D00800A1D00630A1C00C3
:10066000470A1B002C0A1B00110A1A00F7091A007E
:10067000DD091900C4091900AB0919009209170016
:100680007B091800630917004C091600360916008B
:10069000200916000A091500F5081500E0081400E5
:1006A000CC081400B8081400A40814009008130023
:1006B0007D0812006B08130058081200460812004B
:1006C000340811002308110012081100010811005C
:1006D000F0071000E0071000D0071000C00710005E
:1006E000B0070F00A107100091070E0083070F004D
:1006F00074070F0065070E0057070E0049070E002C
:100700003B070D002E070E0020070D0013070D00FC
:1007100006070D00F9060C00ED060D00E0060C00C2
:10072000D4060C00C8060C00BC060C00B0060C0079
:10073000A4060B0099060C008D060B0082060B0028
:1007400077060B006C060B0061060A0057060B00CB
:100750004C060A0042060A0038060A002E060A0065
:1007600024060A001A060A001006090007060A00F5
:10077000FD050900F4050900EB050900E205090083
:10078000D9050900D0050900C7050900BE05090003
:10079000B5050800AD050800A50509009C05080081
:1007A000940508008C050800840508007C050800F5
:1007B000740508006C050700650508005D05070065
:1007C000560508004E0507004705070040050800CC
:1007D00038050700310507002A0507002305070033
:1007E0001C050600160507000F0507000805060092
:1007F00002050700FB040600F5040700EE040600EE
:10080000E8040600E2040700DB040600D504060045
:10081000CF040600C9040600C3040600BD04060098
:10082000B7040600B1040500AC040600A6040600E7
:10083000A00405009B040600950405009004060032
:100840008A04050085040500800406007A0405007A
:1008500075040500700405006B04050066040500BE
:10086000610405005C0405005704050052040500FE
:100870004D04050048040500430405003E0404003F
:100880003A04050035040500300404002C0405007A
:1008900027040400230405001E0404001A040400B5
:1008A00016040500110404000D04040009040500E9
:1008B0000404040000040400FC030400F803040022
:1008C000F4030400F0030400EC030400E803040054
:1008D000E4030400E0030400DC030400D803040084
:1008E000D4030400D0030400CC030400C8030300B5
:1008F000C503030024F404D9201BC40C5C0E980427
:10090000C4095F0265077101F405F900FB04B30037
:1009100048048700C10369005803550003034500DC
:10092000BE023A008402310053022A002902250047
:1009300004022000E4011C00C8011900AF011700E7
:10094000980114008401130071011000610110006E
:1009500051010E0043010D0036010B002B010B006D
:1009600020010B00150109000C010900030108001A
:10097000FB000800F3000800EB000700E40006009D
:10098000DE000600D8000600D2000600CC000500FC
:10099000C7000500C2000500BD000400B900040046
:1009A000B5000400B1000400AD000400A90004007B
:1009B000A5000300A20003009F0004009B000300A9
:1009C00098000300950002009300030090000300CC
:1009D0008D0002008B0003008800020086000200E8
:1009E00084000300810002007F0002007D000200FD
:1009F0007B0002007900020077000100760002000F
:100A00007400020072000100710002006F00020019
:100A10006D0001006C0002006A0001006900020024
:100A2000670001006600010065000100640002002B
:100A30006200010061000100600001005F0002002F
:100A40005D0001005C0001005B0001005A00010034
:100A50005900010058000100570001005600010034
:100A60005500010054000100530000005300010034
:100A70005200010051000100500001004F00010030
:100A80004E0000004E0001004D0001004C0001002E
:100A90004B0000004B0001004A000100490001002A
:100AA0004800000048000100470001004600000027
:100AB000460001004500000045000100440001001F
:100AC000430000004300010042000000420001001A
:100AD0004100000041000100400001003F00000013
:100AE0003F0001003E0000003E0001003D0000000C
:100AF0003D0001003C0000003C0000003C00010003
:100B00003B0000003B0001003A0000003A000100F9
:100B100039000000390001003800000038000000F2
:100B200038000100370000003700010036000000E7
:100B300036000000360001003500000035000000DE
:100B400035000100340000003400000034000100D2
:100B500033000000330000003300010032000000C9
:100B600032000000320001003100000031000000BE
:100B700031000100300000003000000030000100B2
:100B80002F0000002F0000002F0000002F000100A8
:100B90002E0000002E0000002E0001002D0000009D
:100BA0002D0000002D0000002D0001002C00000091
:100BB0002C0000002C0000002C0001002B00000085
:100BC0002B0000002B0000002B0001002A00000079
:100BD0002A0000002A0000002A000100290000006D
:100BE0002900000029000000290000002900010060
:100BF0002800000028000000280000002800000055
:100C00002800010027000000270000002700000046
:100C10002700000027000100260000002600000039
:100C2000260000002600000026000100250000002C
:100C30002500000025000000250000002500000020
:100C40002500010024000000240000002400000012
:100C50002400000024000100230000002300000005
:100C600023000000230000002300000023000000F8
:100C700023000100220000002200000022000000EA
:100C800022000000220000002200010021000000DC
:100C900021000000210000002100000021000000D0
:100CA00021000000210001002000000020000000C1
:100CB00020000000200000002000000020000000B4
:100CC00020000000200001001F0000001F000000A5
:100CD0001F0000001F0000001F0000001F00000098
:100CE0001F0001001E0000001E0000001E0000008A
:100CF0001E00000039300000332500008719000075
:100D0000B00F0000DB080000BD040000740200000A
:100D10003F01000023646566696E652044454641D5
:100D2000554C545F4B64200023646566696E6520F2
:100D300044454641554C545F4B6920002364656629
:100D4000696E652044454641554C545F4B70200008
:100D5000504944204175746F74756E652066696EE4
:100D60006973686564212050757420746865206C0F
:100D7000617374204B702C204B6920616E64204B92
:100D80006420636F6E7374616E74732066726F6D2E
:100D90002062656C6F7720696E746F20436F6E669A
:100DA000696775726174696F6E2E680A00504944F4
:100DB000204175746F74756E65206661696C656439
:100DC000212074696D656F75740A0045342054489C
:100DD00045524D414C2052554E41574159004533E3
:100DE00020544845524D414C2052554E415741598F
:100DF00000453220544845524D414C2052554E41F9
:100E000057415900453120544845524D414C2052DC
:100E1000554E4157415900546865726D616C2052BE
:100E2000756E617761790045342048656174696E3B
:100E300067206661696C65640045332048656174AC
:100E4000696E67206661696C65640045322048659B
:100E50006174696E67206661696C65640045312064
:100E600048656174696E67206661696C65640048F5
:100E7000656174696E67206661696C6564005049DC
:100E800044204175746F74756E65206661696C6588
:100E900064212054656D706572617475726520748B
:100EA0006F6F20686967680A00204B643A20002051
:100EB0004B693A2000204B703A20000A20436C61B5
:100EC0007373696320504944200A002054753A2006
:100ED00000204B753A2000206D61783A2000206D8B
:100EE000696E3A200020643A200020626961733AFA
:100EF0002000504944204175746F74756E652073ED
:100F0000746172740A00504944204175746F74759D
:100F10006E65206661696C656421204261642065AC
:100F200078747275646572206E756D6265720A0000
:100F30006265640A002C2073797374656D20737484
:100F40006F7070656421204865617465725F494403
:100F50003A20001000600350012C0190012201D0C2
:100F600001180110020E0170020401E002FA006093
:100F700003F0000004E600B004DC00A005D200B0DD
:100F800006C8000008BE00A009B400800BAA00D06B
:100F90000DA00090109600C0138C00701782009076
:100FA0001B780010206E00C0246400E02D500080EB
:100FB000353C00A03A2800A03D1400003F0000A0EE
:100FC0003FECFF4534204572723A204D415854455C
:100FD0004D50004533204572723A204D41585445DA
:100FE0004D50004532204572723A204D41585445CB
:100FF0004D50004531204572723A204D41585445BC
:101000004D50004572723A204D415854454D502084
:10101000424544004D415854454D50207472696713
:101020006765726564004534204572723A204D4907
:101030004E54454D50004533204572723A204D497B
:101040004E54454D50004532204572723A204D496C
:101050004E54454D50004531204572723A204D495D
:101060004E54454D50004572723A204D494E5445FC
:101070004D5020424544004D494E54454D5020743A
:10108000726967676572656400202F002040002048
:1010900042403A0020403A00230321031F031C036F
:1010A00019031603130310030D030A0307037472D5
:1010B00075650066616C7365002074656D7065729E
:1010C0006174757265207072657761726E207472DA
:1010D000696767657265643A2000207072657761A0
:1010E000726E20666C616720636C65617265640A6C
:1010F0000000002100240027002A002D00300033CA
:101100000001010000040107010A0100002200257E
:101110000028002B002E00310034000201000005E1
:101120000108010B01000020002300260029002CEB
:10113000002F003200000100000301060109010533
:10114000050505070508080808020202020A0A0840
:101150000804040404010101010101010103030366
:101160000303030303040707070C0C0C0C0C0C0C03
:101170000C0202020206060606060606060B0B0B0A
:101180000B0B0B0B0B010210202008081020401045
:10119000204080020102010804020101020408103B
:1011A0002040808040201008040201800402018059
:1011B0004020100804020108040201010204081082
:1011C000204080010204081020408000000A0B0229
:1011D000090C0D0E080703040100000000000000C8
:1011E00000000000000000000000000000000000FF
:1011F00000000000000000121110000000000000BC
:1012000000000000000000000000000000000000DE
:101210000047322F47332062616420706172616D34
:1012200065746572730A003C3C3C204732380A0002
:101230003E20686F6D696E67206E6F74206E656505
:101240006465642C20736B69700A003C3C3C204749
:1012500032380A005261697365205A202862656637
:101260006F726520686F6D696E672920746F20004A
:101270003E20656E6473746F70732E656E61626C70
:10128000652874727565290A003E3E3E2047323853
:101290000A00205A3A200020593A20004265642072
:1012A000583A20004D65736820706F696E74206332
:1012B000616E6E6F74206265207265736F6C766507
:1012C000640A005072696E742074696D653A20007A
:1012D0006F6666004F034A0343033C032E03250356
:1012E00044454255473A004D3131332053006F6B2E
:1012F00000544845524D414C5F50524F5445435461
:10130000494F4E004155544F5245504F52545F5330
:10131000445F53544154555300454D455247454E43
:1013200043595F50415253455200434153455F4C2E
:10133000494748545F4252494748544E4553530029
:10134000544F47474C455F4C494748545300534F0F
:101350004654574152455F504F57455200425549F8
:101360004C445F50455243454E54004C4556454C05
:10137000494E475F44415441005A5F50524F4245E5
:10138000004155544F4C4556454C005052494E541F
:101390005F4A4F420050524F475245535300415508
:1013A000544F5245504F52545F54454D5000564F84
:1013B0004C554D455452494300454550524F4D0000
:1013C00053455249414C5F584F4E5F584F46460077
:1013D0004649524D574152455F4E414D453A4D6148
:1013E000726C696E20564432305F3232303930329E
:1013F0005F3137323420534F555243455F434F449A
:10140000455F55524C3A68747470733A2F2F676970
:10141000746875622E636F6D2F467261636B7461C1
:101420006C576F726B732F4A756C6961323031384B
:101430004D61726C696E3131392050524F544F43B7
:101440004F4C5F56455253494F4E3A312E30204D46
:10145000414348494E455F545950453A566F6C7464
:1014600065727261204475616C2045585452554430
:1014700045525F434F554E543A3420555549443AEE
:1014800030313038613539392D336239352D3431C9
:1014900038362D613633362D303639656235393878
:1014A000373963300A002F2F2000205400205200CB
:1014B000416363656C65726174696F6E3A205000B8
:1014C0003F4A206F7574206F662072616E676520D9
:1014D00028302E303120746F20302E33290A00003E
:1014E0000020C20000C8430080CF43546F6F2066C5
:1014F00061722066726F6D207265666572656E63DB
:101500006520706F696E740A00FF010120466C6FE0
:10151000773A2000000136372603FFFFFF3F3C3DAE
:1015200038FF0FFFFF402E303EFF13FFFFFF410645
:101530000C0809FFFFFF1A1C18FFFF4224221EFFA0
:10154000FF0C24221EFFFF2C24221EFFFFFF2C086D
:10155000440AFF3A07FF392FFF432DFF45206F75DF
:1015600074206F662072616E67650A00536572763B
:101570006F200043290A0061626C656420286D6950
:101580006E2074656D702000436F6C642065787404
:1015900072756465732061726520004E6F2063610F
:1015A0007365206C696768740A004D657368207004
:1015B0006F696E742063616E6E6F74206265207255
:1015C00065736F6C7665640A004D34323120696E44
:1015D000636F727265637420706172616D657465AA
:1015E000722075736167650A00454550524F4D2062
:1015F0004F4B0A003F5A206F7574206F662072614E
:101600006E676520282D323020746F203230290A11
:10161000003A200050726F6265205A204F66667350
:101620006574003C3C3C2067636F64655F540A004E
:10163000203A2041465445520A00202063757272B8
:10164000656E745F706F736974696F6E3D00203AE8
:10165000204245464F52450A00202063757272654C
:101660006E745F706F736974696F6E3D003E3E3ECD
:101670002067636F64655F54280020503A00205A49
:101680003A0020593A0020583A00656E6473746F2E
:101690007073206869743A2000556E6B6E6F776EB8
:1016A00020636F6D6D616E643A202200203A203C09
:1016B0003C3C2072756E5F7A5F70726F62650A00E3
:1016C000202063757272656E745F706F73697469E0
:1016D0006F6E3D002044697363726570616E63795B
:1016E0003A00326E642050726F6265205A3A0020D0
:1016F0003A203C3C3C2072756E5F7A5F70726F627C
:10170000650A00202063757272656E745F706F7376
:101710006974696F6E3D00534C4F572050726F6271
:1017200065206661696C210A003173742050726F04
:101730006265205A3A00203A203C3C3C2072756E8B
:101740005F7A5F70726F62650A0020206375727243
:10175000656E745F706F736974696F6E3D004641AA
:1017600053542050726F6265206661696C210A00D3
:10177000203A203E3E3E2072756E5F7A5F70726F37
:1017800062650A00202063757272656E745F706F07
:10179000736974696F6E3D003C3C3C2070726F62EF
:1017A000655F70740A0050726F62696E67206661CF
:1017B000696C65640A0050524F42494E475F46418A
:1017C000494C45440A00205A3A200020593A20004A
:1017D00042656420583A2000203A200A0020206305
:1017E000757272656E745F706F736974696F6E3D48
:1017F000005F72656C6174697665290A002C2000AF
:101800002C20002C20002C20003E3E3E2070726FC9
:1018100062655F707428002066697273740A005AEA
:101820000059005800486F6D6520006563686F3A85
:1018300000453420544845524D414C2052554E41AC
:1018400057415900453320544845524D414C205290
:10185000554E4157415900453220544845524D415B
:101860004C2052554E41574159004531205448456E
:10187000524D414C2052554E41574159004245442A
:1018800020544845524D414C2052554E41574159E4
:1018900000546865726D616C2052756E6177617974
:1018A000005072696E7465722068616C7465642E94
:1018B000206B696C6C28292063616C6C6564210A5B
:1018C000004572726F723A002569730025696D20B8
:1018D000256973002569682025696D2025697300D5
:1018E000256964202569682025696D2025697300B4
:1018F00025697920256964202569682025696D207E
:10190000256973002C20002C2000203A2073796E6A
:10191000635F706C616E5F706F736974696F6E0A7C
:1019200000202063757272656E745F706F736974E6
:10193000696F6E3D00656E7175657565696E6720CE
:1019400022005072696E7465722073746F707065D6
:10195000642064756520746F206572726F72732ED7
:101960002046697820746865206572726F72206104
:101970006E6420757365204D39393920746F20727B
:101980006573746172742E202854656D7065726180
:10199000747572652069732072657365742E2053A7
:1019A0006574206974206166746572207265737451
:1019B000617274696E67290A004E6F20436865631F
:1019C0006B73756D2077697468206C696E65206E25
:1019D000756D6265722C204C617374204C696E6564
:1019E0003A2000636865636B73756D206D69736D74
:1019F000617463682C204C617374204C696E653A85
:101A000020004C696E65204E756D626572206973A9
:101A1000206E6F74204C617374204C696E65204E8B
:101A2000756D6265722B312C204C617374204C698A
:101A30006E653A20004D3131300020496E76616C80
:101A40006964206578747275646572200000000016
:101A50000000000000000000000080C5430000C836
:101A6000430080CF430A20736F66745F656E6473B2
:101A7000746F705F6D6178203D20000A20736F667F
:101A8000745F656E6473746F705F6D696E203D2066
:101A9000000A20706F736974696F6E5F736869669E
:101AA00074203D200020617869733A0A20686F6DC8
:101AB000655F6F6666736574203D2000466F722017
:101AC000003C3C3C20646F5F626C6F636B696E67C7
:101AD0005F6D6F76655F746F0A003E3E3E20646FF7
:101AE0005F626C6F636B696E675F6D6F76655F7465
:101AF0006F00203A2073657475705F666F725F6562
:101B00006E6473746F705F6F725F70726F62655F27
:101B10006D6F76650A00202063757272656E745F62
:101B2000706F736974696F6E3D00203A20636C6555
:101B3000616E5F75705F61667465725F656E647318
:101B4000746F705F6F725F70726F62655F6D6F76DA
:101B5000650A00202063757272656E745F706F7322
:101B60006974696F6E3D00646F5F70726F62655F6C
:101B7000726169736528006465706C6F793A200042
:101B8000203A207365745F70726F62655F64657080
:101B90006C6F7965640A00202063757272656E74DB
:101BA0005F706F736974696F6E3D00203A203C3C32
:101BB0003C20646F5F70726F62655F6D6F76650A5F
:101BC00000202063757272656E745F706F73697444
:101BD000696F6E3D00203A203E3E3E20646F5F708C
:101BE000726F62655F6D6F76650A002020637572A3
:101BF00072656E745F706F736974696F6E3D0072A9
:101C0000657365745F6265645F6C6576656C0A0018
:101C10002028646F6E65290A004578747261706FC0
:101C20006C617465205B0042696C696E656172204D
:101C30004C6576656C696E6720477269643A0A0084
:101C40003C3C3C20646F5F686F6D696E675F6D6FD1
:101C5000766528005B00290A002C20002C20003E1D
:101C60003E3E20646F5F686F6D696E675F6D6F7673
:101C7000652800202864697361626C6564290A0024
:101C800041424C2041646A7573746D656E74205ACC
:101C90000020480020570020590042696C696E6599
:101CA000617220477269642058002028656E616265
:101CB0006C6564290A0042494C494E454152004135
:101CC00075746F20426564204C6576656C696E673B
:101CD0003A200020262053616D65205A2061730050
:101CE000204E6F7A7A6C65290A0020262041626FA7
:101CF00076650020262042656C6F77002D42616377
:101D00006B002028526967687400205A3A002059F5
:101D10003A0050726F6265204F6666736574205892
:101D20003A004649585F4D4F554E5445445F505216
:101D30004F42450A0050726F62653A2000436F724D
:101D4000650A004D616368696E6520547970653A73
:101D500020003C3C3C204732390A0020636F7272FD
:101D60006563746564205A3A0047323920756E63A2
:101D70006F72726563746564205A3A00203A203E9F
:101D80002070726F62696E6720636F6D706C65742E
:101D9000650A00202063757272656E745F706F73E0
:101DA0006974696F6E3D00202844525952554E297E
:101DB00000473239204175746F20426564204C65BC
:101DC00076656C696E67003F20284C2C522C462C9F
:101DD0004229206F7574206F6620626F756E647380
:101DE0002E0A003F2856296572626F7365206C6564
:101DF00076656C20697320696D706C6175736962BA
:101E00006C652028302D34292E0A00426164205A46
:101E10002076616C75650A004E6F2062696C696E90
:101E200065617220677269640A003C3C3C2047325D
:101E3000390A003E204175746F2D6C6576656C2003
:101E40006E6F74206E65656465642C20736B6970B9
:101E50000A004732380A473239003E204E6F74205C
:101E6000686F6D65642E20456E7175657565696E68
:101E7000672047323820666F6C6C6F77656420622C
:101E800079204732390A00203A203E3E3E20473230
:101E9000390A00202063757272656E745F706F730B
:101EA0006974696F6E3D0050726F74656374656428
:101EB0002050696E0A005374616E6461726420443C
:101EC0006576696174696F6E3A20002052616E67B1
:101ED000653A2000204D61783A2000204D696E3A25
:101EE00020004D65616E3A200046696E6973686531
:101EF00064210A002072616E67653A2000206D61DE
:101F0000783A2000206D696E3A2000207369676D71
:101F1000613A2000206D65616E3A20003A207A3ADD
:101F20002000206F662000205A0020590020580011
:101F3000476F696E6720746F3A00436C6F636B770D
:101F40006973650A00436F756E7465722D002044D5
:101F50006972656374696F6E3A2000202020616E9B
:101F6000676C653A20005374617274696E67207201
:101F700061646975733A2000506F736974696F6E9C
:101F8000696E67207468652070726F62652E2E2EF0
:101F90000A003F4E756D626572206F66206C656742
:101FA0007320696E206D6F76656D656E74206E6F3F
:101FB0007420706C61757369626C652028302D31F6
:101FC00035292E0A003F2028582C5929206F757476
:101FD000206F6620626F756E64732E0A003F536136
:101FE0006D706C652073697A65206E6F7420706CFB
:101FF00061757369626C652028342D3530292E0A8D
:10200000004D3438205A2D50726F62652052657031
:102010006561746162696C69747920546573740ACE
:10202000003F2856296572626F7365206C6576657E
:102030006C20697320696D706C61757369626C6581
:102040002028302D34292E0A0020573A0020573AF4
:1020500000205A3A0020423A0020436F756E7420E7
:10206000413A0020453A00205A3A0020593A005897
:102070003A003A004361703A00205A002059005853
:102080000020204D61783A2000205A002059005845
:102090000020204D696E3A20004F6E20004F66668A
:1020A00000536F667420656E6473746F70733A20AA
:1020B00000496E76616C6964206578747275646538
:1020C000720A0020643A0020693A0020703A004207
:1020D0006564204C6576656C696E672000466169B1
:1020E0006C656420746F20656E61626C652042656A
:1020F00064204C6576656C696E670A00496E76618E
:102100006C69642065787472756465720A00416355
:10211000746976652045787472756465723A20003A
:10212000203A204D6F7665206261636B0A002020A3
:1021300064657374696E6174696F6E3D002C206311
:102140006F727265637465642063757272656E7414
:102150005F706F736974696F6E5B5A5F4158495362
:102160005D3D0046573A2053746F70205A206372C9
:102170006173682C2065787065637465642063758D
:102180007272656E745F706F736974696F6E5B5A9B
:102190005F415849535D3D00207D0A002C20004FCF
:1021A000666673657420546F6F6C2058592062798D
:1021B000207B200046573A204368616E67696E674E
:1021C0002064657374696E6174696F6E5B585F41FA
:1021D0005849535D20746F2073746F70206372616F
:1021E00073682C2064657374696E6174696F6E5BCB
:1021F000585F415849535D3D002C2073746F705FE8
:10220000785F63726173683D0046573A20746D7061
:102210005F785F6D6F76653D002C2073746F705F23
:102220007A5F63726173683D0046573A20746D703F
:102230005F7A5F6D6F76653D004E6F206D6F7665DE
:10224000206F6E20746F6F6C6368616E67650A0043
:10225000526573656E643A200020746F6F206C6F56
:102260006E6720657874727573696F6E2070726521
:1022700076656E7465640A0020636F6C642065780F
:1022800074727573696F6E2070726576656E7465B1
:10229000640A00627573793A207061757365642011
:1022A000666F7220696E7075740A00627573793A90
:1022B0002070617573656420666F72207573657236
:1022C0000A00627573793A2070726F63657373697F
:1022D0006E670A004B494C4C20636175736564203E
:1022E000627920746F6F206D75636820696E616319
:1022F000746976652074696D65202D20637572722E
:10230000656E7420636F6D6D616E643A20002020ED
:10231000506C616E6E657242756666657242797464
:1023200065733A20002046726565204D656D6F72B9
:10233000793A2000436F6D70696C65643A20466598
:102340006220313020323032320A00207C20417548
:1023500074686F723A20467261636B74616C2057C7
:102360006F726B730A00323032322D30322D3039B9
:102370002031323A353100204C617374205570643D
:10238000617465643A20004275696C643A20564471
:1023900032305F3232303930325F313732340A0016
:1023A000467261636B74616C20576F726B73205659
:1023B0006F6C7465727261204475616C0A00312E15
:1023C000312E390A004D61726C696E0020536F66C0
:1023D00074776172652052657365740A00205761D5
:1023E000746368646F672052657365740A002042E5
:1023F000726F776E206F75742052657365740A0072
:102400002045787465726E616C2052657365740A3C
:1024100000506F77657255700A0073746172740AA8
:1024200000206472697665722063757272656E74DD
:102430003A20003C3C3C207365745F617869735FAF
:1024400069735F61745F686F6D652800203A200AC8
:1024500000202063757272656E745F706F736974AB
:10246000696F6E3D005D203D20003E20686F6D6508
:102470005F6F66667365745B003E3E3E20736574F5
:102480005F617869735F69735F61745F686F6D65C1
:10249000280000004842000048420000A04100001F
:1024A00000005761726E696E673A20486F6D696E01
:1024B000672042756D702044697669736F72203CA5
:1024C00020310A000202040000A0400000A04000E9
:1024D0000000400080C5430000C8430080CF433C5B
:1024E0003C3C20686F6D65617869732800203A2054
:1024F0003E204146544552207365745F617869738C
:102500005F69735F61745F686F6D650A00202063A7
:10251000757272656E745F706F736974696F6E3D0A
:1025200000486F6D65203220536C6F773A0A004D7A
:102530006F766520417761793A0A00486F6D6520B2
:102540003120466173743A0A003E3E3E20686F6D4A
:1025500065617869732800486F74656E64206F66E2
:1025600066736574733A003A200020536572766F83
:1025700020006F6B004572726F7220777269746908
:102580006E6720746F20454550524F4D210A00451B
:102590004550524F4D206461746173697A652065BE
:1025A00072726F722E0A00290A00206279746573B4
:1025B0003B20637263200053657474696E677320F7
:1025C00053746F726564202800290A0020627974B0
:1025D00065733B2063726320002073746F726564BF
:1025E0002073657474696E677320726574726965AF
:1025F000766564202800202863616C63756C6174C3
:10260000656429210A0020213D2000454550524F94
:102610004D20435243206D69736D61746368202DB2
:10262000202873746F7265642920002053697A65CD
:102630003A2000496E6465783A2000204D61726C42
:10264000696E3D563535290A0028454550524F4D93
:102650003D00454550524F4D2076657273696F6E4F
:10266000206D69736D6174636820004861726463F2
:102670006F6465642044656661756C74205365748D
:1026800074696E6773204C6F616465640A0020038F
:1026900000002003000032000000102700000000AE
:1026A00048430000484300008041000034420000DD
:1026B000C8420000C842F0F7FB4300000C43202052
:1026C0004D393036003A0A0020286D6D290020541B
:1026D00031204500205430204500205A0020590068
:1026E0002058005374657070657220647269766555
:1026F000722063757272656E743A0A0020204D383C
:102700003531205A005A2D50726F6265204F66662F
:102710007365740020440020490020204D3330317F
:1027200020500020440020490020500020204D333C
:1027300030312045005049442073657474696E67D8
:10274000733A0A00205A00204A00202047323920DC
:102750005720490020204D343230205300417574F9
:102760006F20426564204C6576656C696E673A0A35
:1027700000205A0020590020580020204D323138C6
:10278000205400486F74656E64206F6666736574CC
:10279000733A0A00205A0020590020204D3230366A
:1027A000205800486F6D65206F66667365743A0A3D
:1027B00000204A0020540020530020204D323035A4
:1027C000204200204A3C6A756E635F6465763E0075
:1027D000416476616E6365643A20423C6D696E5F68
:1027E0007365676D656E745F74696D655F75733E63
:1027F00020533C6D696E5F66656564726174653E09
:1028000020543C6D696E5F74726176656C5F6665BD
:102810006564726174653E002054002052002020DF
:102820004D323034205000416363656C65726174D1
:10283000696F6E2028756E6974732F7332293A2080
:10284000503C7072696E745F616363656C3E2052C8
:102850003C726574726163745F616363656C3E2092
:10286000543C74726176656C5F616363656C3E0AAB
:1028700000204500205A0020590020204D323031E0
:102880002058004D6178696D756D20416363656CFA
:1028900065726174696F6E2028756E6974732F7329
:1028A00032293A0A00204500205A002059002020F1
:1028B0004D3230332058004D6178696D756D20665A
:1028C00065656472617465732028756E6974732F11
:1028D00073293A0A00204500205A00205900202080
:1028E0004D39322058005374657073207065722022
:1028F000756E69743A0A0020204D32303020443021
:102900000A0020204D323030205433204400202053
:102910004D32303020543220440020204D323030AF
:1029200020543120440020204D32303020440020FB
:1029300044697361626C65640A0046696C616D6527
:102940006E742073657474696E67733A0020204753
:102950003231202020203B007A5F70726F62653A2E
:1029600020007A5F6D61783A2000795F6D61783A76
:102970002000785F6D696E3A20005265706F727446
:10298000696E6720656E6473746F70207374617410
:1029900075730A00000000010000000100008000C3
:1029A000555555000000400033333300AAAA2A00D1
:1029B0004992240000002000C7711C009999190059
:1029C000D1451700555515003BB11300244912009D
:1029D00011111100000010000F0F0F00E3380E005E
:1029E00043790D00CCCC0C00C3300C00E8A20B00E6
:1029F00064210B00AAAA0A00703D0A009DD80900B4
:102A0000427B090092240900DCD308008888080072
:102A10001042080000000800F0C107008787070087
:102A200075500700711C07003EEB0600A1BC0600B4
:102A30006990060066660600703E06006118060092
:102A400017F4050074D105005BB00500B2900500D5
:102A5000627205005555050078390500B81E05005D
:102A6000050505004EEC040087D40400A1BD040058
:102A700090A7040049920400C17D0400EE6904009F
:102A8000C7560400444404005C32040008210400DA
:102A900041100400000004003FF00300F8E00300D0
:102AA00026D20300C3C30300CCB503003AA8030039
:102AB0000A9B0300388E0300C08103009F7503004A
:102AC000D0690300505E03001D5303003448030027
:102AD000913D03003333030016290300381F030020
:102AE00097150300300C0300030303000BFA0200E8
:102AF00049F10200BAE802005CE002002DD80200B1
:102B00002DD0020059C80200B0C0020031B9020045
:102B1000DAB10200AAAA0200A0A30200BC9C020033
:102B2000FA9502005C8F0200DF88020082820200B8
:102B3000457C02002776020027700200436A0200EB
:102B40007C640200D05E02003F590200C8530200BC
:102B500037A611241FBECFEFD1E2DEBFCDBF00E00C
:102B60000CBF13E0A0E0B2E0ECE2F8E901E00BBF3B
:102B700002C007900D92A838B107D9F721E1A8E863
:102B8000B3E001C01D92A03DB207E1F715E1C9EA2B
:102B9000D5E100E006C021970109802FFE010E94C7
:102BA00095CBC83AD10780E00807A9F70E9491A702
:102BB0000C9414CC0C9400000F931F93CF93DF93CD
:102BC000582FFC0180E077E0919148E0282F30E019
:102BD000A92FB0E08901000F012F001F110B917088
:102BE000C92F90E0D92F880F0C171D0721F0C901BC
:102BF000880F991F8727B595A7959A2F415031F7D0
:102C00009E2F951B961700F3DF91CF911F910F9187
:102C10000895AF92BF92CF92DF92EF92FF920F93FF
:102C20001F93CF93DF936C017B018B01040F151F62
:102C3000EB015E01AE18BF08C017D10759F06991CA
:102C4000D601ED91FC910190F081E02DC60119951E
:102C5000892B79F7C501DF91CF911F910F91FF90DB
:102C6000EF90DF90CF90BF90AF9008958150823168
:102C700008F05AC0E82FF0E08827EE5BF94E8F4F3E
:102C80000C9495CB6216661654165A165E16941658
:102C900069166F16731679167D16811687168B16B0
:102CA00094168F1695169916809180008F778093D1
:102CB00080000895809180008F7DF9CF8091800001
:102CC000877FF5CF84B58F7784BD089584B58F7DD8
:102CD000FBCF8091B0008F778093B00008958091F2
:102CE000B0008F7DF9CF809190008F778093900016
:102CF0000895809190008F7DF9CF80919000877F1B
:102D0000F5CF8091A0008F778093A00008958091E7
:102D1000A0008F7DF9CF8091A000877FF5CF8091B3
:102D200020018F77809320010895809120018F7D6D
:102D3000F9CF80912001877FF5CFCF93DF93282FA4
:102D400030E0F901E553FE4E8491F901EB57FE4E58
:102D5000D491F901E15CFE4EC491CC23A1F0811124
:102D60000E943616EC2FF0E0EE0FFF1FEB5DFE4EDB
:102D7000A591B491EC91ED2381E090E009F480E01D
:102D8000DF91CF91089580E090E0FACF1F93CF9329
:102D9000DF93282F30E0F901E553FE4E8491F901CD
:102DA000EB57FE4ED491F901E15CFE4EC491CC2369
:102DB000A9F0162F81110E943616EC2FF0E0EE0FCD
:102DC000FF1FE55FFE4EA591B4918FB7F894EC918B
:102DD000111108C0D095DE23DC938FBFDF91CF9116
:102DE0001F910895DE2BF8CF3FB7F8948091F00F34
:102DF0009091F10FA091F20FB091F30F26B5A89B1F
:102E000005C02F3F19F00196A11DB11D3FBFBA2F7C
:102E1000A92F982F8827BC01CD01620F711D811D3C
:102E2000911D42E0660F771F881F991F4A95D1F7C1
:102E300008952091E90F3091EA0F2817390771F4AE
:102E40009091E80F8091E70F981741F0E091E80F1B
:102E5000F0E0E955F04F808190E008958FEF9FEF0B
:102E600008950895EF92FF920F931F93CF93DF93EE
:102E7000DC015C96ED90FC905D97E114F10479F42F
:102E800081E090E013969C938E93129790E080E0FF
:102E9000DF91CF911F910F91FF90EF900895519680
:102EA000ED91FC91529750968C915097982F909558
:102EB0000FB75E962C915E97122F127021FD6095D0
:102EC000F8942081112319F1282B2083E701219701
:102ED000F1F728E0462F50E0308160FF1AC0382B10
:102EE0003083E7012197F1F7BA0175956795215075
:102EF00089F7112381F08081892380830FBF5C963D
:102F00008D919C910197F1F781E090E0C1CF292349
:102F1000DCCF3923E5CF9081892BEFCF2091E90FCA
:102F20003091EA0F2817390771F48091E70F20914B
:102F3000E80F90E0805C9F4F821B910960E470E095
:102F40000E9481CB089590E080E008952091E90FE0
:102F50003091EA0F28173907B9F49091E80F809162
:102F6000E70F981789F0E091E80FF0E0E955F04F8E
:102F700080812091E80F30E02F5F3F4F2F73332780
:102F80002093E80F90E008958FEF9FEF0895CF937F
:102F9000DF93FC01828D938D892B41F1A091E90F84
:102FA000B091EA0FAE17BF0709F1109751F0539691
:102FB000CD91DC915497988155968C918095892379
:102FC0008883868D8E7F868F1092E70F1092E80F90
:102FD000F093EA0FE093E90FA389B4898C91958966
:102FE000892B8C9381E0DF91CF91089580E0FBCF16
:102FF00090E080E00895BC012091290F30912A0FC4
:103000004091290F50912A0F2417350731F481E0A0
:103010002617370709F080E008959A01F1CFEF9263
:10302000FF920F931F93E0927D09F0927E09009327
:103030007F091093800960938209709383098093BC
:1030400084099FEFFF27621B730B840B30F480957C
:1030500070956195790B890B992790935910A6E08B
:103060006A9F00924D10512DEE277A9F500DE11D61
:103070008A9FE00D50934E10E0934F10AFE06A9F8F
:1030800000925110512DEE277A9F500DE11D8A9F1D
:10309000E00D50935210E0935310AAE06A9F009203
:1030A0005510512DEE277A9F500DE11D8A9FE00D9E
:1030B00050935610E09357101F910F91FF90EF908F
:1030C000089580915A0E90915B0E891B8F7019F4B0
:1030D00090E080E008959091570E992351F083304D
:1030E00030F48FEF890F19F08093570EF1CF1092C3
:1030F000570E80915B0E2DE5829FC00111248355F0
:103100009C4FFC01208120FDE3CF20915B0E2F5FBF
:103110002F702093580E30915B0E2091590E321370
:1031200004C02091580E2093590E0895AF92BF927B
:10313000CF92DF92EF92FF920F931F93CF93DF9383
:103140006B017A01EC01C152D14F28813CE0389FDC
:103150008001399F100D1124A0904C10B12C27FF35
:103160001FC0FB011182108288818F5F8883888154
:103170009801280F311D87FD3A95F6012A153B0568
:103180001CF488818C30C4F1808191810496803454
:103190009C4908F473C0F60180819181049670C047
:1031A00088819801280F311D87FD3A952A153B0526
:1031B000DCF68881A801480F511D87FD5A95FA0158
:1031C000EE0FFF1FE40FF51FE45AF14F808186FFD9
:1031D000CBCF8881F801E80FF11D87FDFA95CF016B
:1031E000EE0FFF1FE80FF91FE45AF14F808160E0F6
:1031F0008F730E94C616B8CF808191812881A80163
:10320000420F511D27FD5A959A01FA01EE0FFF1F3B
:10321000E20FF31FE45AF14F21813281820F931F95
:10322000F7019183808388819801280F311D87FDE4
:103230003A95F901EE0FFF1FE20FF31FE45AF14F29
:10324000808186FF22C08881080F111D87FD1A9595
:10325000F801EE0FFF1FE00FF11FE45AF14F8081DC
:1032600061E08F73DF91CF911F910F91FF90EF90ED
:10327000DF90CF90BF90AF900C94C61680E49CE98D
:10328000F701918380838FEF8883DF91CF911F9126
:103290000F91FF90EF90DF90CF90BF90AF90089587
:1032A00080915A0E90915B0E891B80958F7019F456
:1032B0000E94557DF5CF80915A0E8F5F8F70E091FF
:1032C0005A0E9DE5E99FF0011124E355FC4FDF0103
:1032D0001D929A95E9F798E0908340913C105091A7
:1032E0003D1060913E1070913F10458B568B678B5F
:1032F000708F409140105091411060914210709138
:103300004310418F528F638F748F409144105091BE
:1033100045106091461070914710458F568F678F0A
:1033200070A3409148105091491060914A107091DB
:103330004B1041A352A363A374A320915A0E909102
:103340005B0E291303C094E69093570E80935A0E98
:1033500080916F00826080936F00089590915A0E63
:1033600080915B0E981308C08091AB099091AC09D5
:10337000892B11F40C944F610E94557DEFCFEF9291
:10338000FF920F931F93CF93DF93CDB7DEB769976B
:103390000FB6F894DEBF0FBECDBF0CEE14E0F801FF
:1033A00084910F5F1F4F81110BC003EE14E0F801F1
:1033B00084910F5F1F4F882331F00E944964F7CF3B
:1033C0000E944964ECCF60919D0370919E0390E050
:1033D00080E04AE00E94366F06ED14E0F801849127
:1033E0000F5F1F4F882319F00E944964F7CF609147
:1033F0009F037091A00390E080E04AE00E94366F46
:103400000BEC14E0F80184910F5F1F4F882319F033
:103410000E944964F7CF60919D0370919E03809153
:103420009F039091A003681B790B8091030A815040
:1034300021E030E0823010F030E020E0621B730BBE
:1034400090E080E04AE00E94366F8AE00E94496482
:1034500003EC14E0F80184910F5F1F4F882319F0EB
:103460000E944964F7CF8091A1039091A203A0919B
:10347000A303B091A4038E8B9F8BA88FB98FBE013D
:103480006F5F7F4FCE0146960E94636306EB14E0A8
:10349000F80184910F5F1F4F81110CC0CE0101967E
:1034A0007C018C01F80181918F01882331F00E9409
:1034B0004964F8CF0E944964EBCF8091A5039091B5
:1034C000A603A091A703B091A8038E8B9F8BA88F12
:1034D000B98FBE016F5F7F4FCE0146960E94636336
:1034E00006EA14E0F80184910F5F1F4F882319F05A
:1034F0000E944964F7CFF70181917F01882319F079
:103500000E944964F8CF8AE00E9449640EE914E001
:10351000F80184910F5F1F4F81110BC00EE814E07A
:10352000F80184910F5F1F4F882331F00E94496496
:10353000F7CF0E944964ECCF20E030E04AE754E442
:103540006091A9037091AA038091AB039091AC03A1
:103550000E9449C942E00E94E3708DE60E944964DE
:103560008AE00E94496469960FB6F894DEBF0FBEE8
:10357000CDBFDF91CF911F910F91FF90EF900895F4
:103580000F931F93CF93DF93182F092FC1ECD8E12E
:10359000FE018491219681110AC0C12FD02FFE0116
:1035A00084912196882331F00E944964F8CF0E94CB
:1035B0004964EECF6091D20C7091D30C8091D40C01
:1035C0009091D50C0E9463708AE00E9449640E9429
:1035D0007F701092D10C1092D00CDF91CF911F917F
:1035E0000F910895FF920F931F93CF93DF938091D4
:1035F000CF0C082F0270182F1470982F9170F92E8D
:1036000080FD11C0CBE2D8E1FE01849121968111A9
:1036100015C0C5E2D8E1FE0184912196882389F086
:103620000E944964F8CF002369F380E0112351F32D
:10363000DF91CF911F910F91FF9008950E944964EF
:10364000E3CFF1100AC0C3E2D8E1FE0184912196D4
:10365000882319F00E944964F8CF01110AC0C1E221
:10366000D8E1FE0184912196882319F00E944964D3
:10367000F8CF11110AC0CFE1D8E1FE018491219663
:10368000882319F00E944964F8CFC7E1D8E1FE0110
:1036900084912196882319F00E944964F8CF81E033
:1036A000C7CFFC01DB018C9120813181382798E064
:1036B000A901220F331F57FD05C09150C9F731836F
:1036C00020830895B1E22B27B0E13B27F6CFDC0140
:1036D00055962C915597222309F488C05396ED9165
:1036E000FC91138E128E118E108E178A168A8FE11E
:1036F00090E0958F848F848596EF980F943048F0F2
:103700002EEC280F243028F022EC280F283008F067
:1037100050C021E030E0378B268B2DE130E0318F37
:10372000208F2DE030E0338F228F943050F02EEC3C
:10373000280F243030F022EC280FB0E0A0E0283031
:1037400010F4A8E6B0E02C91943020F032EC380F61
:10375000383090F131E0232B943048F09EEC980FF4
:10376000943028F08E53B0E0A0E0883010F4A8E642
:10377000B0E02C93848596EF980F9430F8F02EECFF
:10378000280F2430D8F022EC280F2830D0F030E079
:1037900020E0348B238B9430B8F48650990B91E061
:1037A00001C0990F8A95EAF7958B848D958D0197C5
:1037B000F1F7CF010C94C71734E0CDCF2BE630E002
:1037C000E8CF2DE630E0E5CF98E0823369F394E06E
:1037D000833351F392E0843339F392EC980F9830AD
:1037E00018F48E53990BDBCF91E0DECF0895CF9381
:1037F000DF9390E0FC01EB57FE4E2491815C9E4EDE
:10380000FC0184918823D1F090E0880F991FFC017E
:10381000EF50FF4EA591B491FC01E55FFE4EC591BE
:10382000D49161110EC09FB7F8948C91E22FE0956E
:103830008E238C932881E223E8839FBFDF91CF9171
:1038400008958FB7F894EC91E22BEC938FBFF6CFED
:103850001F93CF93DF93182FEB0161E00E94F71BBA
:10386000209739F460E0812FDF91CF911F910C9464
:10387000C616CF3FD10511F461E0F5CFE12FF0E09E
:10388000E553FE4EE491E150E23108F0B3C0F0E0C0
:103890008827E25BF34E8F4F0C9495CB601C681C1D
:1038A0006D1C771C811CFA1C8B1C931C9B1CA51C7B
:1038B000AF1CB91CC81CD21CFA1CDC1CE61CF01C7A
:1038C00084B5806884BDC7BDDF91CF911F910895F5
:1038D00084B5806284BDC8BDF7CF809180008068C8
:1038E00080938000D0938900C0938800EDCF8091B1
:1038F0008000806280938000D0938B00C0938A0008
:10390000E3CF80918000886080938000D0938D0009
:10391000C0938C00D9CF8091B00080688093B000B4
:10392000C093B300D1CF8091B00080628093B0008B
:10393000C093B400C9CF80919000806880939000BC
:10394000D0939900C0939800BFCF8091900080627F
:1039500080939000D0939B00C0939A00B5CF809144
:103960009000886080939000D0939D00C0939C004D
:10397000ABCF8091A00080688093A0008091A000D0
:103980008F7B8093A000D093A900C093A8009CCF08
:103990008091A00080628093A000D093AB00C09380
:1039A000AA0092CF8091A00088608093A000D0935D
:1039B000AD00C093AC0088CF8091200180688093D7
:1039C0002001D0932901C09328017ECF809120014E
:1039D000806280932001D0932B01C0932A0174CF81
:1039E00080912001886080932001D0932D01C093A5
:1039F0002C016ACFC038D1050CF03ECF33CF8F9267
:103A00009F92AF92BF92CF92DF92EF92FF926B01A3
:103A10007C010E94F4164B015C01C114D104E10445
:103A2000F104B9F00E94F416681979098A099B0912
:103A3000683E73408105910580F321E0C21AD108E8
:103A4000E108F10888EE880E83E0981EA11CB11CE5
:103A5000E4CFFF90EF90DF90CF90BF90AF909F901A
:103A60008F900895CF92DF92EF92FF920F931F9362
:103A7000CF93DF9300D000D01F921F92CDB7DEB757
:103A80007C018E010F5F1F4F88E0D8011D928A953F
:103A9000E9F785E089836B835C834D833E832F83C5
:103AA00067E0C8010E94DC158887F70185899E01BF
:103AB000275F3F4F6901882379F1D70153968D9194
:103AC0009C91F80161918F01DC01ED91FC910190D5
:103AD000F081E02D1995F70120813181820F931F2C
:103AE00091838083C016D10641F7D70116966D9158
:103AF0007C9190E080E00E94FF1C28960FB6F8941D
:103B0000DEBF0FBECDBFDF91CF911F910F91FF9010
:103B1000EF90DF90CF900895D70151968D919C91B1
:103B2000F80161918F01DC01ED91FC910190F08130
:103B3000E02D1995F70120813181820F931F918328
:103B400080830C151D0541F7D0CF2F923F924F92E5
:103B50005F926F927F928F929F92AF92BF92CF921D
:103B6000DF92EF92FF920F931F93CF93DF93CDB726
:103B7000DEB72C970FB6F894DEBF0FBECDBF7C0129
:103B80001B018EEA97E4A1EEBDE3F70182839383E4
:103B9000A483B58390E080E00E94CBC325ED34E0A0
:103BA00045E352E40E942CC420E030E04AE754E4AC
:103BB0000E9449C94B015C0128EB3EE145E05EE310
:103BC0000E942CC426E636E646EA5EE30E9449C916
:103BD00020E030E040E85FE30E944EC80E94C2C986
:103BE000462EFFE0F61708F489C0F701FE96208103
:103BF00031814281538142602083318342835383E8
:103C00006CEEC7010E94321D2AE037ED43EA5CE307
:103C1000D70112966D917D918D919C9115970E947F
:103C20004FC8A50194010E942CC42CEE31E548E355
:103C30005EE30E9449C920E030E040E85FE30E9473
:103C40004EC80E94C2C9462EF70126A537A540A935
:103C500051A9307E842D90E0B0E0A0E0BA2FA92FCA
:103C6000982F882788279F71AA27BB27282B392BB5
:103C70004A2B5B2B26A737A740AB51AB60E9C701A6
:103C80000E94321D642D70E090E080E00E94CDC360
:103C900020E030E040E05FE30E942CC40E94C2C9F3
:103CA0006F71F70126A537A540A951A9207E262BC3
:103CB00026A737A740AB51AB60E9C7010E94321D70
:103CC000F701E55BFF4F318220822C960FB6F89406
:103CD000DEBF0FBECDBFDF91CF911F910F91FF903F
:103CE000EF90DF90CF90BF90AF909F908F907F909C
:103CF0006F905F904F903F902F900895F701E65B93
:103D0000FF4F808181114BC119861A861B861C8644
:103D100085E089878CE68B8763E0CE0109960E9457
:103D2000DC158C87F7018589882309F475C08389A0
:103D300094890E94C717D70116966D907C901797AB
:103D400053968D909C90D401ED91FC910084F18567
:103D5000E02DC4011995181619064CF4D401ED9103
:103D6000FC910284F385E02DC4011995ECCFFE018E
:103D700039965F016E01FDE0CF0ED11CD5016D912A
:103D80005D01D401ED91FC910190F081E02DC40121
:103D90001995CA14DB0491F704E010E0D401ED9109
:103DA000FC910284F385E02DC4011995015011099D
:103DB000A9F7B30190E080E00E94FF1C10E0712C95
:103DC000A12CB12CC12CD12C512C612CD401ED9102
:103DD000FC910084F185E02DC4011995181619068F
:103DE0000CF086C0D401ED91FC910284F385E02DA6
:103DF000C4011995E82F212F372DA501B601852D76
:103E0000962D08E00E949DCB1E2F122B732E5A0177
:103E10006B01582E692EDACF668077808188928870
:103E2000D401ED91FC910084F185E02DC401199538
:103E3000181619064CF4D401ED91FC910284F38517
:103E4000E02DC4011995ECCFFE0139965F016E019A
:103E5000FDE0CF0ED11CD5016D915D01D401ED9136
:103E6000FC910190F081E02DC4011995CA14DB0486
:103E700091F704E010E0D401ED91FC910284F38508
:103E8000E02DC401199501501109A9F7B30190E083
:103E900080E00E94FF1C10E0712CA12CB12CC12CE1
:103EA000D12C512C612CD401ED91FC910084F18531
:103EB000E02DC401199518161906D4F4D401ED911A
:103EC000FC910284F385E02DC4011995E82F212F80
:103ED000372DA501B601852D962D08E00E949DCBBA
:103EE0001E2F122B732E5A016B01582E692EDBCF19
:103EF000212F372DA501B601852D962D08E30E94AF
:103F0000B8CB2983212F372DA501B601852D962DFC
:103F100000E30E94B8CB2A83212F372DA501B601DB
:103F2000852D962D08E20E94B8CB2B83212F372DAB
:103F3000A501B601852D962D00E20E94B8CB2C83F9
:103F4000212F372DA501B601852D962D08E10E9460
:103F5000B8CB2D83212F372DA501B601852D962DA8
:103F600000E10E94B8CB2E83212F372DA501B60189
:103F7000852D962D08E00E94B8CB022FB32E6A0142
:103F80002F83188767E0CE0101960E94DC15181375
:103F900006C0F701FE960083B182C282D382F70188
:103FA000FE9680819181A281B381A1FF4DCE9C01BB
:103FB000AD014D7F20833183428353836CEEC70173
:103FC0000E94321D41CE0F931F93CF93DF93EC01DC
:103FD0002E893F89488D598D20642E8B3F8B488FC9
:103FE000598F60E80E94321D2E893F89488D598D76
:103FF00020682E8B3F8B488F598F60E8CE010E943E
:10400000321D2E893F89488D598D2E7F2E8B3F8BF7
:10401000488F598F60E8CE010E94321D60E273E044
:10402000CE010E94A51D8E01025C1F4FF801208168
:10403000318142815381507F546020833183428398
:1040400053836CEECE010E94321DF8012081318134
:10405000428153813F774E7F306820833183428392
:1040600053836CEECE010E94321DF8012081318114
:1040700042815381207F2560208331834283538393
:104080006CEECE010E94321DF80120813181428107
:104090005381506120833183428353836CEECE0180
:1040A0000E94321D80E890E0A0E0B0E08AAB9BABBC
:1040B000ACABBDAB20E830E040E050E061E9CE01C0
:1040C0000E94321DF80120813181428153812F7875
:1040D000206220833183428353836CEECE010E94A1
:1040E000321DF80120813181428153812F77387F41
:1040F0002068326020833183428353836CEECE018B
:104100000E94321D0C5F1F4FF801208131814281D6
:1041100053815F70506C208331834283538360EFFF
:10412000CE010E94321DF8012081318142815381EC
:10413000507F5860208331834283538360EFCE01E8
:104140000E94321DF80120813181428153814860F3
:10415000208331834283538360EFCE010E94321D5E
:10416000F801208131814281538144602083318371
:104170004283538360EFCE010E94321DF8012081FB
:104180003181428153814C7F41602083318342835E
:10419000538360EFCE010E94321DF80120813181EE
:1041A0004281538133273E6020833183428353838E
:1041B00060EFCE010E94321DF801208131814281E1
:1041C000538122272462208331834283538360EF0B
:1041D000CE010E94321D2E893F89488D598D2B7F3B
:1041E0002E8B3F8B488F598F60E8CE010E94321D85
:1041F00087E090E0A0E0B0E08A8F9B8FAC8FBD8F0E
:1042000027E030E040E050E061E8CE010E94321D3E
:1042100068EC70E080E090E0DF91CF911F910F910A
:104220000C94FF1C2FB7F8946091EC0F7091ED0F78
:104230008091EE0F9091EF0F2FBF08951F920F9274
:104240000FB60F9211242F933F938F939F93AF93A9
:10425000BF938091EC0F9091ED0FA091EE0FB09174
:10426000EF0F3091EB0F23E0230F2D3758F5019618
:10427000A11DB11D2093EB0F8093EC0F9093ED0FD8
:10428000A093EE0FB093EF0F8091F00F9091F10F8C
:10429000A091F20FB091F30F0196A11DB11D809373
:1042A000F00F9093F10FA093F20FB093F30FBF9123
:1042B000AF919F918F913F912F910F900FBE0F90D3
:1042C0001F90189526E8230F0296A11DB11DD2CF8D
:1042D0001F920F920FB60F9211240BB60F922F93CD
:1042E0003F934F935F936F937F938F939F93AF937E
:1042F000BF93EF93FF93E091E90FF091EA0F3097AE
:1043000049F0A685B7858585968D91FF16C09C914D
:104310008923B1F4FF91EF91BF91AF919F918F915C
:104320007F916F915F914F913F912F910F900BBEB5
:104330000F900FBE0F901F9018959C91892351F7F5
:10434000A389B4899C918589809589238C938689DA
:1043500097890197F1F7608D718DA685B785558591
:1043600038E020E0CB010197F1F7822F90E095959E
:104370008795282F4C91452309F02068315091F7FB
:10438000868D81FD20958091E70F90E001968F73D7
:1043900099273091E80F381799F0A091E70FB0E016
:1043A000A955B04F2C938093E70F828D938D019781
:1043B000F1F7A389B4898C919589892B8C93AACF25
:1043C000868D8160868FF1CFCF93DF93E82FEE0F3C
:1043D000FF0BE856FF4EC591D491FE0184912196C2
:1043E000882319F00E944964F8CFDF91CF91089596
:1043F000CF93DF930E94E421CAEDD0E1FE018491C6
:104400002196882319F00E944964F8CFDF91CF915B
:1044100008951F93CF93DF93162F0E94E421C9EBD9
:10442000D0E1FE0184912196882319F00E9449640D
:10443000F8CFC3EBD0E1112311F0CEEAD0E1FE01B9
:1044400084912196882319F00E944964F8CF8AE06C
:10445000DF91CF911F910C9449648F929F92AF92FC
:10446000BF92CF92DF92EF92FF920F931F93CF9361
:10447000DF93DC0170E0FB01EE0FFF1FEE57FD4FF5
:104480002081318162587D4FFB019081D92E80E0DF
:10449000E82EF12CB7016D0D711D759567956817A4
:1044A00011F0D61222C0492F4150550BFA01EE0FE0
:1044B000FF1FEE0FFF1F3296E20FF31F65917491FD
:1044C000072E000C880B990B0E94CDC3DF91CF9172
:1044D0001F910F91FF90EF90DF90CF90BF90AF9022
:1044E0009F908F900895D62ED5CFAB0141505109A2
:1044F000440F551F440F551FF901E40FF51F059197
:104500001491FA013496E20FF31FC591D491A017CC
:10451000B1074CF3862FCA17DB070CF4B9CFFA01A9
:104520003296E20FF31FE590F490FA013696E20F0F
:10453000F31FC590D490BD01601B710B072E000CBA
:10454000880B990B0E94CDC34B015C01B6016E191B
:104550007F09072E000C880B990B0E94CDC39B018D
:10456000AC01C501B4010E942CC44B015C01BE0129
:10457000601B710B072E000C880B990B0E94CDC39A
:104580009B01AC01C501B4010E9449C94B015C010A
:10459000B701FF0C880B990B0E94CDC39B01AC01A6
:1045A000C501B4010E944FC891CF0F930FB70F936D
:1045B00000916E000B7F00936E0078940F930BB701
:1045C0000F930CB70F921F922F933F934F935F93CC
:1045D0006F937F938F939F93AF93BF93EF93FF93CB
:1045E00011240E942D3AFF91EF91BF91AF919F91BD
:1045F0008F917F916F915F914F913F912F911F907C
:104600000F900CBF0F910BBF0F910460F8940093B3
:104610006E000F910FBF0F9118956091110A709164
:10462000120A66507109072E000C880B990B0E9424
:10463000CDC32091AD093091AE094091AF095091A1
:10464000B0090E94AFCA181614F40C9412210895F0
:10465000CF93DF93C82FD0E0FE01EE0FFF1FEC5F7A
:10466000F54F6081718167507109072E000C880B2E
:10467000990B0E94CDC3CC0FDD1FCC0FDD1FCF5493
:10468000D64F288139814A815B810E94AFCA1816B2
:1046900024F4DF91CF910C941221DF91CF910895F2
:1046A0008F929F92AF92BF92CF92DF92EF92FF9242
:1046B0000F931F93CF93DF93BCE1A0E06A2F70E0CC
:1046C000AB014B0F511D55954795A41711F0B4132D
:1046D00019C0E1ECFFE065917491072E000C880B86
:1046E000990B0E94CDC3DF91CF911F910F91FF9045
:1046F000EF90DF90CF90BF90AF909F908F900895F4
:10470000B42FDECF9A0121503109220F331F220F1F
:10471000331FF901ED5AF04FE590F490F901E95A91
:10472000F04FC591D4918E159F0554F3A42FC8174F
:10473000D9070CF4C3CFF901EB5AF04F059114914E
:10474000F901E75AF04FC590D490BC016E197F096A
:10475000072E000C880B990B0E94CDC34B015C0106
:10476000B601601B710B072E000C880B990B0E9481
:10477000CDC39B01AC01C501B4010E942CC44B0107
:104780005C01BE016E197F09072E000C880B990B86
:104790000E94CDC39B01AC01C501B4010E9449C96F
:1047A0006B017C01B801110F880B990B0E94CDC3DE
:1047B0009B01AC01C701B6010E944FC894CF0F9373
:1047C0001F938091030A813019F50E9412210091F4
:1047D0002F0F1091300F2091310F3091320F601B4D
:1047E000710B820B930B28EE33E040E050E00E9407
:1047F000EBC760912B0F70912C0F80912D0F909132
:104800002E0F620F731F841F951F1F910F91089524
:104810006091F40F7091F50F8091F60F9091F70F62
:10482000D6CF1092030A10922F0F1092300F1092D1
:10483000310F1092320F1092F40F1092F50F109268
:10484000F60F1092F70F10922B0F10922C0F109260
:104850002D0F10922E0F08958AE09EE00E94E31F14
:104860008DEB9DE00E94E31F80E79DE00E94E31F27
:1048700083E29DE00E94E31F86ED9CE00C94E31F21
:104880000F931F93CF93DF93C82F80916F00D82F82
:10489000D27081FF05C080916F008D7F80936F0083
:1048A0006091E7097091E8098091E9099091EA091E
:1048B0000091EB091091EC092091ED093091EE097E
:1048C000C13039F5601B710B820B930B0E94CDC375
:1048D00020E030E040E05FE30E942CC40E94BBC9AE
:1048E00024E0C29FF0011124E857F64F60837183E2
:1048F0008283938381E080938709DD2329F080916F
:104900006F00826080936F00DF91CF911F910F91B4
:104910000895600F711F821F931FD8CF90916F0071
:10492000292F227091FF05C090916F009D7F909379
:104930006F0094E0899FF0011124E951F64F6081E6
:10494000718182819381222329F020916F0022605E
:1049500020936F0008950F930FB70F9300916E008F
:104960000F930B7F00936E0000916F000D7F0093FB
:104970006F000F930BB70F930CB70F921F922F93EB
:104980003F934F935F936F937F938F939F93AF93D7
:10499000BF93EF93FF9311240E943B25FF91EF916A
:1049A000BF91AF919F918F917F916F915F914F9147
:1049B0003F912F911F900F900CBF0F910BBF0F9144
:1049C0000260F89400936F000F9100936E000F91B6
:1049D0000FBF0F9118958091810980FF27C0899A98
:1049E0008FEF8093E20E8091810981FF22C08F9A20
:1049F0008FEF8093E30E8091810982FF1DC080912B
:104A00000B018270809309018FEF8093E40E8091F7
:104A1000E60E9091810993FF1FC08130C9F0A4F484
:104A20008823C1F08FEF8093E50E0895899881E087
:104A3000D8CF8F9881E0DDCF80910B018095827077
:104A40008093090181E0E1CF823011F0833051F78A
:104A50004398E8CF169AE6CF813049F024F48823B2
:104A600041F081E0E0CF823011F08330D1F7439AFA
:104A7000F8CF1698F6CF2F923F924F925F926F9297
:104A80007F928F929F92AF92BF92CF92DF92EF92DE
:104A9000FF920F931F93CF93DF93CDB7DEB761974C
:104AA0000FB6F894DEBF0FBECDBFF8948FEF9FEF27
:104AB00090938900809388000AE00983912C812CCF
:104AC00040E1A42E4DE0B42E78948091250F909172
:104AD000260FA091270FB091280F892B8A2B8B2BA3
:104AE00009F0EEC1809187098823D1F08091290FC8
:104AF00090912A0F10928709892B91F010928609C4
:104B000010922A0F1092290F90915A0E80915B0EED
:104B1000981731F080915B0E8F5F8F7080935B0EE2
:104B20008091290F90912A0F892B09F4C9C14091D6
:104B3000210F5091220F6091230F7091240F8091CB
:104B40001D0F90911E0FA0911F0FB091200F00918B
:104B5000140F10E030E020E0841B950BA60BB70B80
:104B6000081719072A073B0710F4D901C801E82FD5
:104B7000840F951FA61FB71F8093210F9093220FBC
:104B8000A093230FB093240F80918400909185000F
:104B90004C964091FB0E5091FC0E6091FD0E709171
:104BA000FE0E0091EB0E1091EC0E2091ED0E309167
:104BB000EE0E400F511F621F731F4093FB0E509368
:104BC000FC0E6093FD0E7093FE0E77FD1CC0889A5C
:104BD0000091E7091091E8092091E9093091EA096B
:104BE0004091E20E042E000C550B660B770B400F24
:104BF000511F621F731F4093E7095093E8096093A8
:104C0000E9097093EA094091FF0E5091000F6091FD
:104C1000010F7091020F0091EF0E1091F00E209194
:104C2000F10E3091F20E400F511F621F731F40931F
:104C3000FF0E5093000F6093010F7093020F77FDEA
:104C40001CC08E9A0091EB091091EC092091ED099E
:104C50003091EE094091E30E042E000C550B660BCB
:104C6000770B400F511F621F731F4093EB09509346
:104C7000EC096093ED097093EE094091030F509198
:104C8000040F6091050F7091060F0091F30E1091C3
:104C9000F40E2091F50E3091F60E400F511F621F59
:104CA000731F4093030F5093040F6093050F70938D
:104CB000060F77FD21C020910B01209528702093CD
:104CC00009010091EF091091F0092091F10930914B
:104CD000F2094091E40E042E000C550B660B770B85
:104CE000400F511F621F731F4093EF095093F0094B
:104CF0006093F1097093F2094091070F5091080FEA
:104D00006091090F70910A0F0091F70E1091F80E43
:104D10002091F90E3091FA0E400F511F621F731F40
:104D20004093070F5093080F6093090F70930A0F79
:104D300077FD25C02091E60E213009F4B5C00CF0B6
:104D4000AEC0222309F4B2C00091F3091091F40916
:104D50002091F5093091F6094091E50E042E000CE2
:104D6000550B660B770B400F511F621F731F40934B
:104D7000F3095093F4096093F5097093F609409193
:104D8000FB0E5091FC0E6091FD0E7091FE0E77FDB2
:104D900015C00091E70E1091E80E2091E90E3091B8
:104DA000EA0E401B510B620B730B4093FB0E5093AA
:104DB000FC0E6093FD0E7093FE0E88984091FF0EDE
:104DC0005091000F6091010F7091020F77FD15C097
:104DD0000091E70E1091E80E2091E90E3091EA0E55
:104DE000401B510B620B730B4093FF0E5093000F4F
:104DF0006093010F7093020F8E984091030F5091B2
:104E0000040F6091050F7091060F77FD19C0009196
:104E1000E70E1091E80E2091E90E3091EA0E401B4A
:104E2000510B620B730B4093030F5093040F60936D
:104E3000050F7093060F20910B0128702093090134
:104E40004091070F5091080F6091090F70910A0F60
:104E500077FD1BC00091E70E1091E80E2091E90E3E
:104E60003091EA0E401B510B620B730B4093070FFE
:104E70005093080F6093090F70930A0F2091E60E6C
:104E80002130D1F0ACF42223C9F0E150C9F02091D7
:104E900084003091850028173907C8F37ACE223074
:104EA00019F0233009F050CF419A4ECF149A4CCFCD
:104EB000223011F0233049F74198E7CF1498E5CF1D
:104EC0008091250F9091260FA091270FB091280F68
:104ED000892B8A2B8B2B11F00C946D2E8091290F2E
:104EE00090912A0F998B888B892B11F40C94E42EC6
:104EF0008091210F9091220FA091230FB091240F48
:104F000040911D0F50911E0F60911F0F7091200F47
:104F100084179507A607B70708F47BC01092860987
:104F200010922A0F1092290F90915A0E80915B0EC9
:104F3000981711F40C94E42E80915B0E8F5F8F70A4
:104F400080935B0E30EDC32E37E0D32EE12CF12C95
:104F50008091290F90912A0F892B11F00C94652EC6
:104F60000E94611890932A0F8093290F892B11F4C6
:104F70000C94652EE091290FF0912A0F808183FF18
:104F80003AC585899689A789B08D418D528D638DEB
:104F9000748D8C019D01040F151F261F371F009370
:104FA000E7091093E8092093E9093093EA09841B83
:104FB000950BA60BB70B8093EB099093EC09A0938C
:104FC000ED09B093EE09858D968DA78DB0A18093E4
:104FD000EF099093F009A093F109B093F20981A130
:104FE00092A1A3A1B4A18093F3099093F409A09393
:104FF000F509B093F60990915A0E80915B0E9817BF
:1050000009F4AECF80915B0E8F5F8F7080935B0E43
:10501000A7CF4091190F50911A0F60911B0F7091FB
:105020001C0F481759076A077B0708F410C2409104
:10503000150F5091160F6091170F7091180FE88996
:10504000F98986A997A9A0ADB1AD481759076A0794
:105050007B0708F0D0C1411551056105710509F0C4
:1050600065C04090820950908309609084097090D7
:10507000850984EF9CE0A1E0FC0105911591259143
:105080003491041515052605370548F47694679480
:1050900057944794AA0F0496A816B90669F7A093E7
:1050A000140FB0E24B1651046104710428F480E23D
:1050B000482E512C612C712CE0E24E1A51086108E7
:1050C00071084114F8E05F066104710408F49CC1A2
:1050D00004E0509EC00111248C50974FFC01329681
:1050E00025913491B42DAA27B39FF001B29FE10D11
:1050F000FA1F0694EA1FFA1F11242F01712C612C4C
:10510000FC01C590D490F12CE12CC418D508E60818
:10511000F7084C0D5D1D6E1D7F1D4093150F5093BC
:10512000160F6093170F7093180F12CF10E0942F83
:10513000452E862FBC81AD81FE81EF813885298582
:10514000FA800B81E0917D09E99FA12DFF27309125
:105150007E09399FA00DF11D10907F09199EF00D59
:10516000E49DA00DF11D349DF00DE89FF00D0A2F78
:10517000BF2F0A9FE12D332722270F9FE00D311DFE
:10518000211FBA9FE00D311D211FBF9F300D211D32
:10519000032FB22F0A9FF12C332722270F9FF00CE9
:1051A000311D211FBA9FF00C311D211FBF9F300DF3
:1051B000211D032FB22FEE27909182094090830981
:1051C0008091840900905910012A09F484C030911B
:1051D0005510309FE119910B410A810B2091561017
:1051E000209FE0199109410A810BF0905710F09E21
:1051F00090194108810B3B9FE0199109410A810BED
:105200002B9F90194108810BFB9E401881090A9F32
:10521000F12C332722270F9FF00C311D211FBA9F3D
:10522000F00C311D211FBF9F300D211D032FB22F08
:1052300030915110309FE10D911F411E811F20912F
:105240005210209FE00D911D411E811FF0905310C0
:10525000F09E900D411C811F3B9FE00D911D411E52
:10526000811F2B9F900D411C811FFB9E400C811DB7
:105270000A9FF12C332722270F9FF00C311D211F8D
:10528000BA9FF00C311D211FBF9F300D211D032F30
:10529000B22F30914D10309FE119910B410A810BD3
:1052A00020914E10209FE0199109410A810BF09046
:1052B0004F10F09E90194108810B3B9FE019910916
:1052C000410A810B2B9F90194108810BFB9E4018CE
:1052D00081090C94ED2930915510309FE10D911FFB
:1052E000411E811F20915610209FE00D911D411EEF
:1052F000811FF0905710F09E900D411C811F3B9F25
:10530000E00D911D411E811F2B9F900D411C811F9F
:10531000FB9E400C811D0A9FF12C332722270F9FF3
:10532000F00C311D211FBA9FF00C311D211FBF9FB2
:10533000300D211D032FB22F30915110309FE119F4
:10534000910B410A810B20915210209FE019910985
:10535000410A810BF0905310F09E90194108810B87
:105360003B9FE0199109410A810B2B9F901941083D
:10537000810BFB9E401881090A9FF12C33272227BD
:105380000F9FF00C311D211FBA9FF00C311D211F02
:10539000BF9F300D211D032FB22F30914D10309F34
:1053A000E10D911F411E811F20914E10209FE00DA5
:1053B000911D411E811FF0904F10F09E900D411CD9
:1053C000811F3B9FE00D911D411E811F2B9F900D62
:1053D000411C811FFB9E400C811D11240B83FA820E
:1053E000BC83AD83FE83EF8338872987542C492EF5
:1053F000712C682E3ECEA889B989D2964D905D90C9
:105400006D907C90D59735CED301C201B695A79506
:10541000979587958C7F9C012C503B4FF901859186
:105420009491F9013296A591B491E42DE770EA9F29
:105430009001EB9F300D112403E0369527950A95D6
:10544000E1F7821B930B6C01F12CE12C62CE4091B1
:10545000100F5091110F6091120F7091130F481798
:1054600059076A077B0708F032C240900B0F509033
:105470000C0F60900D0F70900E0F80910F0FE88948
:10548000F98981117DC0EE5BFF4FE080F1800281E0
:105490001381E889F989E15BFF4F208131814281E5
:1054A0005381A889B989D2966D917D918D919C91F6
:1054B000D5970E940F18B1E0B0930F0FE889F989D2
:1054C000C2A8D3A8E4A8F5A884EF9CE021E0FC01E1
:1054D00045915591659174914C155D056E057F055B
:1054E00048F4F694E794D794C794220F0496A8162C
:1054F000B90669F72093140FB0E2CB16D104E1048A
:10550000F10428F4F0E2CF2ED12CE12CF12CE0E2D2
:10551000CE1AD108E108F108C114F8E0DF06E10471
:10552000F10408F4B1C104E0D09EC00111248C50F4
:10553000974FFC013296259134917C2D6627739FFD
:10554000A001729F410D561F0694461F561F11243D
:1055500070E060E0FC01C590D490F12CE12CC41AFD
:10556000D50AE60AF70A4C0C5D1C6E1C7F1C4092A3
:105570000B0F50920C0F60920D0F70920E0FE8CC33
:1055800082AD93ADA4ADB5AD481659066A067B064B
:1055900008F070C1411451046104710449F4C090D1
:1055A0008209D0908309E0908409F09085098CCF1E
:1055B00070E06A85942DE52C862D5B854C85ED8504
:1055C0003E852F8520917D09299FE12D332720904D
:1055D0007E09299EE00D311D10907F09199E300D26
:1055E0002E9DE00D311D2E9C300D289F300D5E2F1D
:1055F000432F5E9F212D22243324539F200D211CF5
:10560000371E4E9F200D211C371E439F200C311C3E
:10561000522D432D5E9F612D22243324539F600D14
:10562000211C371E4E9F600D211C371E439F200CEE
:10563000311C522D432D222790918209E09083093D
:105640008091840900905910072A09F484C02090A1
:105650005510259E2119970BE70A870B309056109D
:10566000359E20199109E70A870B60915710659FB5
:105670009019E108870B249E20199109E70A870BEE
:10568000349E9019E108870B649FE01881095E9FA2
:10569000612D22243324539F600D211C371E4E9F01
:1056A000600D211C371E439F200C311C522D432DB1
:1056B00020905110259E210D971FE71E871F3090C7
:1056C0005210359E200D911DE71E871F60915310CB
:1056D000659F900DE11C871F249E200D911DE71EE4
:1056E000871F349E900DE11C871F649FE00C811D75
:1056F0005E9F612D22243324539F600D211C371E91
:105700004E9F600D211C371E439F200C311C522DD3
:10571000432D20904D10259E2119970BE70A870BEA
:1057200030904E10359E20199109E70A870B609141
:105730004F10659F9019E108870B249E201991094D
:10574000E70A870B349E9019E108870B649FE018E5
:1057500081090C942D2C20905510259E210D971F0A
:10576000E71E871F30905610359E200D911DE71EB5
:10577000871F60915710659F900DE11C871F249E25
:10578000200D911DE71E871F349E900DE11C871F81
:10579000649FE00C811D5E9F612D22243324539F62
:1057A000600D211C371E4E9F600D211C371E439F2C
:1057B000200C311C522D432D20905110259E211973
:1057C000970BE70A870B30905210359E20199109EC
:1057D000E70A870B60915310659F9019E108870BCA
:1057E000249E20199109E70A870B349E9019E1083D
:1057F000870B649FE01881095E9F612D222433246A
:10580000539F600D211C371E4E9F600D211C371EBB
:10581000439F200C311C522D432D20904D10259E6E
:10582000210D971FE71E871F30904E10359E200DCB
:10583000911DE71E871F60914F10659F900DE11C21
:10584000871F249E200D911DE71E871F349E900DFB
:10585000E11C871F649FE00C811D11246A875B8710
:105860004C87ED873E872F87FE2CE92E6701F12CB0
:10587000E82E2ACE88899989815B9F4FDC01CD90E3
:10588000DD90ED90FC9020CED701C601B695A7958E
:10589000979587958C7F9C012C503B4FF901859102
:1058A0009491F901329645915491AC2DA770A49F23
:1058B0009001A59F300D1124E3E036952795EA95D8
:1058C000E1F7821B930B6C01F12CE12C4CCE809103
:1058D0000D0290910E02A0910F02B0911002B7FF3D
:1058E0005FC0E889F989E95BFF4F408051806280A1
:1058F000738084EF9CE021E0FC0145915591659116
:105900007491441555056605770548F476946794B7
:1059100057944794220F0496A816B90669F7209366
:10592000140FF0E24F1651046104710428F450E2A0
:10593000452E512C612C712C00E2401A510861084F
:105940007108411428E052066104710408F431C062
:1059500074E0579EC00111248C50974FFC01329681
:1059600025913491A42D6627A39FA001A29F410DEC
:10597000561F0694461F561F112470E060E0FC017C
:1059800085919491B0E0A0E0841B950BA60BB70B1A
:1059900080930D0290930E02A0930F02B093100219
:1059A000C0900D02D0900E02E0900F02F090100215
:1059B000CFCAD301C201B695A795979587958C7FDD
:1059C0008C509B4FFC0125913491FC0132964591FE
:1059D0005491B42DB770B49FC001B59F900D1124A0
:1059E00043E0969587954A95E1F7281B390BC90145
:1059F000B0E0A0E0CDCF458956896789708D418C94
:105A0000528C638C748CDF01AA5BBF4FFC90F88AC8
:105A100081E0441555056605770509F0AEC180E0C3
:105A2000411551056105710559F09F2D96959170AD
:105A30008F2D8095817089272F2D217092139DC104
:105A4000058D168D278D30A1011511052105310514
:105A500009F084608093860910920B0F10920C0F4E
:105A600010920D0F10920E0F1092150F1092160F2C
:105A70001092170F1092180F85A196A1A7A1B0A59B
:105A800080931D0F90931E0FA0931F0FB093200FB4
:105A9000CC24DD247601C81AD90AEA0AFB0AC0928E
:105AA000070FD092080FE092090FF0920A0FC092F0
:105AB000030FD092040FE092050FF092060FC092F0
:105AC000FF0ED092000FE092010FF092020FC092F1
:105AD000FB0ED092FC0EE092FD0EF092FE0E440FF3
