:100000000C9479150C94AA150C94AA150C94AA15A5
:100010000C94AA150C94AA150C94AA150C94AA1564
:100020000C94AA150C94AA150C94AA150C94AA1554
:100030000C94AA150C94AA150C94AA150C94AA1544
:100040000C94AA150C94589D0C94AA150C94AA15FE
:100050000C94AA150C94AA150C945D930C946090C2
:100060000C94AA150C94229E0C94AA150C94AA1513
:100070000C94AA150C94AA150C94AA150C94AA1504
:100080000C94F49D0C94AA150C94AA150C94AA1522
:100090000C94AA150C94AA150C94AA150C94AA15E4
:1000A0000C94AA150C94AA150C94C69D0C94AA1530
:1000B0000C94AA150C94AA150C94AA150C94989D4E
:1000C0000C94AA150C94AA150C94AA150C94AA15B4
:1000D0000C94AA150C94AA150C94AA150C94AA15A4
:1000E0000C94AA15084AD73B3BCE016E84BCBFFDD9
:1000F000C12F3D6C74319ABD56833DDA3D00C77FF8
:1001000011BED9E4BB4C3E916BAAAABE0000008090
:100110003F05A84CCDB2D44EB93836A9020C50B91F
:10012000918688083CA6AAAA2ABE000000803F004B
:100130000C9453910C9414170C94EA150C940D160E
:100140000C9422930C9479170C945B170C943A93AB
:100150000C940F930C9451170C940A170C9429A02B
:100160000C94FB150C941C170C9405160C94251676
:100170000C94F2150C943F930C9417160C94F116F2
:100180000C942E170C946F170C94F2920C94091681
:100190000C9400170C94EE150C9424170C94D39225
:1001A0000C9421160C94F6160C94E9160C94651711
:1001B0000C9483170C9413160C940A930C94201629
:1001C0000C94DF920C9427930C94E0150C94381740
:1001D0000C944F910C94FF150C94F7920C94F51518
:1001E0000C94E6150C941B160C9442174E414E4984
:1001F0004E495459494E46CDCCCC3D0AD7233C17E5
:10020000B7D13877CC2B329595E6241FB14F0A0031
:100210000020410000C84200401C4620BCBE4CCA21
:100220001B0E5AAEC59D7400000000300E0100C0C8
:100230000E0A00500F1400D00F1E0060102800E0BE
:1002400010320070113C00F0114600701250000096
:10025000135A008013640000146E0090147800108C
:1002600015820090158C00101696009016A00010B4
:1002700017AA009017B4001018BE009018C80010FC
:1002800019D2009019DC00101AE600801AF0000064
:100290001BFA00801B0401F01B0E01701C1801F0FA
:1002A0001C2201601D2C01E01D3601501E4001D0B2
:1002B0001E4A01401F5401B01F5E0130206801A09A
:1002C00020720110217C01902186010022900160A2
:1002D00026F401902A5802802EBC0250322003E0FE
:1002E0003584035039E803803C4C044C4556454C5A
:1002F000494E4700434F4D4D554E49434154494F98
:100300004E0044525952554E004552524F525300DE
:10031000494E464F004543484F0025697300256903
:100320006D20256973002569682025696D20256980
:100330007300256964202569682025696D20256979
:10034000730025697920256964202569682025695D
:100350006D20256973002C20002C2000203A20738A
:10036000796E635F706C616E5F706F736974696FD3
:100370006E0A00202063757272656E745F706F7311
:100380006974696F6E3D00656E7175657565696E3E
:10039000672022005072696E7465722073746F70EA
:1003A0007065642064756520746F206572726F7269
:1003B000732E2046697820746865206572726F72AA
:1003C00020616E6420757365204D39393920746F52
:1003D00020726573746172742E202854656D706587
:1003E0007261747572652069732072657365742E0D
:1003F000205365742069742061667465722072658B
:100400007374617274696E67290A004E6F204368C5
:1004100065636B73756D2077697468206C696E65B0
:10042000206E756D6265722C204C617374204C696E
:100430006E653A2000636865636B73756D206D6946
:10044000736D617463682C204C617374204C696E09
:10045000653A20004C696E65204E756D62657220AC
:100460006973206E6F74204C617374204C696E65E3
:10047000204E756D6265722B312C204C6173742097
:100480004C696E653A20004D3131300020496E765E
:10049000616C69642065787472756465722000000F
:1004A00000000000000000000000000080C54300C4
:1004B00000C8430000D2430A20736F66745F656E04
:1004C0006473746F705F6D6178203D20000A207343
:1004D0006F66745F656E6473746F705F6D696E20B4
:1004E0003D20000A20706F736974696F6E5F7368D6
:1004F000696674203D200020617869733A0A20689B
:100500006F6D655F6F6666736574203D2000466F92
:100510007220003C3C3C20646F5F626C6F636B69CF
:100520006E675F6D6F76655F746F0A003E3E3E20BA
:10053000646F5F626C6F636B696E675F6D6F76652A
:100540005F746F00203A2073657475705F666F7218
:100550005F656E6473746F705F6F725F70726F62ED
:10056000655F6D6F76650A00202063757272656E37
:10057000745F706F736974696F6E3D00203A206319
:100580006C65616E5F75705F61667465725F656EE4
:100590006473746F705F6F725F70726F62655F6DAE
:1005A0006F76650A00202063757272656E745F70E5
:1005B0006F736974696F6E3D00646F5F70726F6214
:1005C000655F726169736528006465706C6F793A64
:1005D0002000203A207365745F70726F62655F64FB
:1005E00065706C6F7965640A0020206375727265AE
:1005F0006E745F706F736974696F6E3D00203A208E
:100600003C3C3C20646F5F70726F62655F6D6F761B
:10061000650A00202063757272656E745F706F7377
:100620006974696F6E3D00203A203E3E3E20646F43
:100630005F70726F62655F6D6F76650A0020206380
:10064000757272656E745F706F736974696F6E3DF9
:100650000072657365745F6265645F6C6576656C76
:100660000A002028646F6E65290A0045787472615B
:10067000706F6C617465205B0042696C696E6561C6
:1006800072204C6576656C696E6720477269643AC2
:100690000A003C3C3C20646F5F686F6D696E675F69
:1006A0006D6F766528005B00290A002C20002C2045
:1006B000003E3E3E20646F5F686F6D696E675F6DE0
:1006C0006F76652800202864697361626C6564290F
:1006D0000A0041424C2041646A7573746D656E7402
:1006E000205A0020480020570020590042696C69B8
:1006F0006E65617220477269642058002028656E1B
:1007000061626C6564290A0042494C494E45415278
:10071000004175746F20426564204C6576656C6994
:100720006E673A200020262053616D65205A2061B3
:100730007300204E6F7A7A6C65290A0020262041CA
:10074000626F76650020262042656C6F77002D422F
:1007500061636B002028526967687400205A3A0070
:1007600020593A0050726F6265204F666673657457
:1007700020583A004649585F4D4F554E5445445F06
:1007800050524F42450A0050726F62653A20004352
:100790006F72650A004D616368696E6520547970F7
:1007A000653A20003C3C3C204732390A0020636F08
:1007B00072726563746564205A3A00473239207555
:1007C0006E636F72726563746564205A3A00203AF2
:1007D000203E2070726F62696E6720636F6D706C6F
:1007E0006574650A00202063757272656E745F70AF
:1007F0006F736974696F6E3D0020284452595255D9
:100800004E2900473239204175746F2042656420BB
:100810004C6576656C696E67003F20284C2C522C25
:10082000462C4229206F7574206F6620626F756EAA
:1008300064732E0A003F2856296572626F73652023
:100840006C6576656C20697320696D706C61757379
:1008500069626C652028302D34292E0A00426164BB
:10086000205A2076616C75650A004E6F2062696CB3
:10087000696E65617220677269640A003C3C3C20C5
:100880004732390A003E204175746F2D6C657665DC
:100890006C206E6F74206E65656465642C20736BCC
:1008A00069700A004732380A473239003E204E6FDD
:1008B0007420686F6D65642E20456E717565756571
:1008C000696E672047323820666F6C6C6F7765649D
:1008D000206279204732390A00203A203E3E3E20ED
:1008E0004732390A00202063757272656E745F703A
:1008F0006F736974696F6E3D0050726F74656374D5
:1009000065642050696E0A005374616E646172649C
:1009100020446576696174696F6E3A2000205261E7
:100920006E67653A2000204D61783A2000204D69BD
:100930006E3A20004D65616E3A200046696E69731B
:10094000686564210A002072616E67653A200020A4
:100950006D61783A2000206D696E3A20002073693D
:10096000676D613A2000206D65616E3A20003A2083
:100970007A3A2000206F662000205A00205900207B
:100980005800476F696E6720746F3A00436C6F635D
:100990006B776973650A00436F756E7465722D001D
:1009A00020446972656374696F6E3A2000202020CC
:1009B000616E676C653A20005374617274696E678A
:1009C000207261646975733A2000506F73697469AD
:1009D0006F6E696E67207468652070726F62652E35
:1009E0002E2E0A003F4E756D626572206F66206C78
:1009F00065677320696E206D6F76656D656E742016
:100A00006E6F7420706C61757369626C652028303C
:100A10002D3135292E0A003F2028582C5929206FC6
:100A20007574206F6620626F756E64732E0A003FC6
:100A300053616D706C652073697A65206E6F7420E8
:100A4000706C61757369626C652028342D353029AE
:100A50002E0A004D3438205A2D50726F6265205294
:100A600065706561746162696C697479205465733D
:100A7000740A003F2856296572626F7365206C65A1
:100A800076656C20697320696D706C61757369623D
:100A90006C652028302D34292E0A0020573A00207A
:100AA000573A00205A3A0020423A0020436F756EB0
:100AB0007420413A0020453A00205A3A0020593A21
:100AC00000583A003A004361703A00205A00205919
:100AD00000580020204D61783A2000205A0020590B
:100AE00000580020204D696E3A20004F6E20004FC4
:100AF000666600536F667420656E6473746F7073FE
:100B00003A2000426564204C6576656C696E67200A
:100B1000004661696C656420746F20656E61626C6B
:100B20006520426564204C6576656C696E670A00D5
:100B3000496E76616C69642065787472756465725B
:100B40000A0041637469766520457874727564653E
:100B5000723A2000203A204D6F7665206261636B07
:100B60000A00202064657374696E6174696F6E3D5C
:100B7000002C20636F727265637465642063757204
:100B800072656E745F706F736974696F6E5B5A5FC4
:100B9000415849535D3D0046573A2053746F7020C9
:100BA0005A2063726173682C206578706563746580
:100BB000642063757272656E745F706F73697469B7
:100BC0006F6E5B5A5F415849535D3D00207D0A00BE
:100BD0002C20004F666673657420546F6F6C20582C
:100BE00059206279207B200046573A204368616E85
:100BF00067696E672064657374696E6174696F6E8E
:100C00005B585F415849535D20746F2073746F7057
:100C10002063726173682C2064657374696E6174FB
:100C2000696F6E5B585F415849535D3D002C2073DE
:100C3000746F705F785F63726173683D0046573A06
:100C400020746D705F785F6D6F76653D002C20734A
:100C5000746F705F7A5F63726173683D0046573AE4
:100C600020746D705F7A5F6D6F76653D004E6F200A
:100C70006D6F7665206F6E20746F6F6C6368616E48
:100C800067650A00526573656E643A200020746FD0
:100C90006F206C6F6E6720657874727573696F6E04
:100CA0002070726576656E7465640A0020636F6CEF
:100CB0006420657874727573696F6E2070726576E2
:100CC000656E7465640A00627573793A20706175A7
:100CD00073656420666F7220696E7075740A0062B5
:100CE0007573793A2070617573656420666F722040
:100CF000757365720A00627573793A2070726F635A
:100D0000657373696E670A004B494C4C20636175CB
:100D100073656420627920746F6F206D756368203D
:100D2000696E6163746976652074696D65202D2034
:100D300063757272656E7420636F6D6D616E643A77
:100D400020002020506C616E6E657242756666658B
:100D50007242797465733A20002046726565204DB1
:100D6000656D6F72793A2000436F6D70696C6564D0
:100D70003A2053657020323420323032300A00205D
:100D80007C20417574686F723A20467261636B749F
:100D9000616C20576F726B730A00323032302D3025
:100DA000392D32322031373A323400204C6173749D
:100DB00020557064617465643A20004275696C6402
:100DC0003A20564432305F3230303932325F313778
:100DD00032340A00467261636B74616C20576F7223
:100DE0006B7320566F6C7465727261204475616C10
:100DF0000A00312E312E390A004D61726C696E0085
:100E000020536F6674776172652052657365740A4A
:100E100000205761746368646F672052657365745E
:100E20000A002042726F776E206F757420526573CE
:100E300065740A002045787465726E616C20526595
:100E40007365740A00506F77657255700A00737489
:100E50006172740A003C3C3C207365745F61786980
:100E6000735F69735F61745F686F6D652800203A16
:100E7000200A00202063757272656E745F706F7354
:100E80006974696F6E3D005D203D20003E20686FF3
:100E90006D655F6F66667365745B003E3E3E2073F2
:100EA00065745F617869735F69735F61745F686FB0
:100EB0006D65280000004842000048420000A04143
:100EC000000000005761726E696E673A20486F6DCE
:100ED000696E672042756D702044697669736F7220
:100EE000203C20310A000202040000A0400000A0C3
:100EF00040000000400080C5430000C8430000D20D
:100F0000433C3C3C20686F6D656178697328002024
:100F10003A203E204146544552207365745F617803
:100F200069735F69735F61745F686F6D650A002044
:100F30002063757272656E745F706F736974696F28
:100F40006E3D00486F6D65203220536C6F773A0A12
:100F5000004D6F766520417761793A0A00486F6DE0
:100F600065203120466173743A0A003E3E3E206897
:100F70006F6D65617869732800486F74656E6420D1
:100F80006F6666736574733A003A20002053657289
:100F9000766F20006F6B004572726F7220777269F6
:100FA00074696E6720746F20454550524F4D210A79
:100FB00000454550524F4D206461746173697A65F4
:100FC000206572726F722E0A00290A0020627974FD
:100FD00065733B20637263200053657474696E67A8
:100FE000732053746F726564202800290A00206200
:100FF000797465733B2063726320002073746F7291
:1010000065642073657474696E67732072657472A9
:101010006965766564202800202863616C63756CBF
:101020006174656429210A0020213D200045455056
:10103000524F4D20435243206D69736D6174636854
:10104000202D202873746F72656429200020536955
:101050007A653A2000496E6465783A2000204D6137
:10106000726C696E3D563535290A00284545505247
:101070004F4D3D00454550524F4D20766572736986
:101080006F6E206D69736D617463682000486172D2
:1010900064636F6465642044656661756C74205395
:1010A000657474696E6773204C6F616465640A00CF
:1010B000DC050000DC050000320000001027000005
:1010C00000009643000096430000A0410000344217
:1010D0000000C8420000C842F0F7FB4300000C4388
:1010E0003A0A0020286D6D290020204D3835312026
:1010F0005A005A2D50726F6265204F666673657490
:101100000020440020490020204D33303120500081
:1011100020440020490020500020204D3330312051
:1011200045005049442073657474696E67733A0AC8
:1011300000205A00204A00202047323920572049F9
:101140000020204D3432302053004175746F20420E
:101150006564204C6576656C696E673A0A00205AB2
:101160000020590020580020204D323138205400F2
:10117000486F74656E64206F6666736574733A0AAF
:1011800000205A0020590020204D323036205800CF
:10119000486F6D65206F66667365743A0A00204A71
:1011A0000020540020530020204D323035204200D2
:1011B000204A3C6A756E635F6465763E00416476E2
:1011C000616E6365643A20423C6D696E5F7365676A
:1011D0006D656E745F74696D655F75733E20533C19
:1011E0006D696E5F66656564726174653E20543C2E
:1011F0006D696E5F74726176656C5F666565647259
:101200006174653E0020540020520020204D323091
:1012100034205000416363656C65726174696F6E60
:101220002028756E6974732F7332293A20503C70F0
:1012300072696E745F616363656C3E20523C7265D7
:1012400074726163745F616363656C3E20543C74C7
:10125000726176656C5F616363656C3E0A00204570
:1012600000205A0020590020204D323031205800F3
:101270004D6178696D756D20416363656C65726160
:1012800074696F6E2028756E6974732F7332293AF2
:101290000A00204500205A0020590020204D3230FD
:1012A000332058004D6178696D756D206665656401
:1012B00072617465732028756E6974732F73293A8F
:1012C0000A00204500205A0020590020204D3932C4
:1012D00020580053746570732070657220756E69B4
:1012E000743A0A0020204D3230302044300A002069
:1012F000204D32303020543320440020204D3230F5
:101300003020543220440020204D323030205431DF
:1013100020440020204D32303020440020446973A6
:1013200061626C65640A0046696C616D656E74206B
:1013300073657474696E67733A00202047323120F8
:101340002020203B007A5F70726F62653A20007A3D
:101350005F6D61783A2000795F6D61783A2000789E
:101360005F6D696E3A20005265706F7274696E67C6
:1013700020656E6473746F70207374617475730A82
:1013800000000000010000000100008000555555DC
:10139000000000400033333300AAAA2A00499224F7
:1013A0000000002000C7711C0099991900D1451751
:1013B00000555515003BB1130024491200111111BD
:1013C00000000010000F0F0F00E3380E0043790DEE
:1013D00000CCCC0C00C3300C00E8A20B0064210B45
:1013E00000AAAA0A00703D0A009DD80900427B09A4
:1013F0000092240900DCD308008888080010420805
:101400000000000800F0C10700878707007550073B
:1014100000711C07003EEB0600A1BC0600699006A7
:101420000066660600703E06006118060017F405A7
:101430000074D105005BB00500B290050062720532
:10144000005555050078390500B81E05000505054D
:10145000004EEC040087D40400A1BD040090A70452
:101460000049920400C17D0400EE690400C75604DF
:1014700000444404005C32040008210400411004CC
:1014800000000004003FF00300F8E0030026D20350
:1014900000C3C30300CCB503003AA803000A9B03B2
:1014A00000388E0300C08103009F750300D06903DC
:1014B00000505E03001D53030034480300913D03B8
:1014C000003333030016290300381F030097150368
:1014D00000300C0300030303000BFA020049F10281
:1014E00000BAE802005CE002002DD802002DD00214
:1014F0000059C80200B0C0020031B90200DAB102DE
:1015000000AAAA0200A0A30200BC9C0200FA950255
:10151000005C8F0200DF88020082820200457C02AC
:10152000002776020027700200436A02007C6402F2
:1015300000D05E02003F590200C853020020746FC1
:101540006F206C6F6E6720657874727573696F6E4B
:101550002070726576656E7465640A0020636F6C36
:101560006420657874727573696F6E207072657629
:10157000656E7465640A00FFFDFCFAF8F6F4F2F09B
:10158000EEECEAE9E7E5E3E1E0DEDCDAD9D7D5D451
:10159000D2D0CFCDCBCAC8C7C5C3C2C0BFBDBCBAED
:1015A000B9B7B6B4B3B2B0AFADACAAA9A8A6A5A45A
:1015B000A2A1A09E9D9C9A99989795949392908FA2
:1015C0008E8D8B8A8988878684838281807F7E7DC9
:1015D0007B7A797877767574737271706F6E6D6CD3
:1015E0006B6A696867666564636261605F5E5D5CC3
:1015F0005B5A5958585756555453525150504F4EA4
:101600004D4C4B4A4A49484746464544434242416D
:10161000403F3E3E3D3C3B3B3A3938383736353526
:10162000343332323130302F2E2E2D2C2B2B2A29D1
:101630002928272726252524232322212120201F6E
:101640001E1E1D1C1C1B1B1A1919181817161615FF
:101650001514131312121111100F0F0E0E0D0D0C85
:101660000C0B0A0A09090808070706060505040401
:101670000303020201000046696C616D656E74200F
:10168000757365643A200053746174733A20002CBA
:10169000204C6F6E67657374206A6F623A20005445
:1016A0006F74616C2074696D653A200053746174C5
:1016B000733A20002C204661696C65643A20002C46
:1016C0002046696E69736865643A20005072696EDD
:1016D00074733A200053746174733A200024F4D474
:1016E0003050C38E20C2A24017828B7011127A91A3
:1016F0000D816CD90AA861E108C75866076151439A
:10170000061E4B5D05C145A7041A411104093D9809
:1017100003713931034036DB0265339102D4305412
:1017200002802E1D02632CEE01752AC501B028A08F
:1017300001102781018F2564012B244B01E0223405
:1017400001AC211F018D200D01801FFC00841EEDC6
:1017500000971DDF00B81CD200E61BC600201BBC92
:1017600000641AB200B219A8000A19A0006A1899F8
:1017700000D117910040178B00B516840031167EFA
:1017800000B31579003A157300C7146F0058146A36
:1017900000EE1366008813630025135E00C7125B1A
:1017A000006C12570015125400C111510070114FF6
:1017B0000021114B00D61049008D104700461044FF
:1017C0000002104200C00F4000800F3E00420F3C5C
:1017D00000060F3B00CB0E3800930E37005C0E3531
:1017E00000270E3400F30D3200C10D3100900D3092
:1017F00000600D2E00320D2D00050D2C00D90C2B94
:1018000000AE0C2900850C29005C0C2700350C2744
:10181000000E0C2600E80B2400C40B2400A00B23B0
:10182000007D0B23005A0B2100390B2100180B20DF
:1018300000F80A1F00D90A1E00BB0A1E009D0A1DDF
:1018400000800A1D00630A1C00470A1B002C0A1BAB
:1018500000110A1A00F7091A00DD091900C4091954
:1018600000AB091900920917007B091800630917DA
:10187000004C09160036091600200916000A091541
:1018800000F5081500E0081400CC081400B808148E
:1018900000A4081400900813007D0812006B0813C0
:1018A00000580812004608120034081100230811DD
:1018B000001208110001081100F0071000E00710E5
:1018C00000D0071000C0071000B0070F00A10710DC
:1018D0000091070E0083070F0074070F0065070EC5
:1018E0000057070E0049070E003B070D002E070E9C
:1018F0000020070D0013070D0006070D00F9060C68
:1019000000ED060D00E0060C00D4060C00C8060C25
:1019100000BC060C00B0060C00A4060B0099060CD7
:10192000008D060B0082060B0077060B006C060B81
:101930000061060A0057060B004C060A0042060A20
:101940000038060A002E060A0024060A001A060AB3
:10195000001006090007060A00FD050900F4050944
:1019600000EB050900E2050900D9050900D00509C9
:1019700000C7050900BE050900B5050800AD05084A
:1019800000A50509009C050800940508008C0508C1
:1019900000840508007C050800740508006C050734
:1019A00000650508005D050700560508004E05079F
:1019B0000047050700400508003805070031050706
:1019C000002A050700230507001C05060016050769
:1019D000000F0507000805060002050700FB0406C6
:1019E00000F5040700EE040600E8040600E2040720
:1019F00000DB040600D5040600CF040600C9040677
:101A000000C3040600BD040600B7040600B10405C7
:101A100000AC040600A6040600A00405009B040612
:101A20000095040500900406008A0405008504055D
:101A300000800406007A04050075040500700405A2
:101A4000006B04050066040500610405005C0405E4
:101A50000057040500520405004D04050048040524
:101A600000430405003E0404003A04050035040563
:101A700000300404002C040500270404002304059E
:101A8000001E0404001A04040016040500110404D6
:101A9000000D04040009040500040404000004040B
:101AA00000FC030400F8030400F4030400F0030442
:101AB00000EC030400E8030400E4030400E0030472
:101AC00000DC030400D8030400D4030400D00304A2
:101AD00000CC030400C8030300C503030024F4047E
:101AE000D9201BC40C5C0E9804C4095F0265077101
:101AF00001F405F900FB04B30048048700C1036941
:101B0000005803550003034500BE023A0084023129
:101B10000053022A002902250004022000E4011CCF
:101B200000C8011900AF01170098011400840113C7
:101B300000710110006101100051010E0043010D00
:101B40000036010B002B010B0020010B00150109D1
:101B5000000C01090003010800FB000800F3000865
:101B600000EB000700E4000600DE000600D80006D7
:101B700000D2000600CC000500C7000500C2000529
:101B800000BD000400B9000400B5000400B1000469
:101B900000AD000400A9000400A5000300A200039A
:101BA000009F0004009B00030098000300950002C2
:101BB0000093000300900003008D0002008B0003DF
:101BC00000880002008600020084000300810002F9
:101BD000007F0002007D0002007B0002007900020D
:101BE000007700010076000200740002007200011C
:101BF00000710002006F0002006D0001006C000225
:101C0000006A00010069000200670001006600012F
:101C10000065000100640002006200010061000133
:101C200000600001005F0002005D0001005C000137
:101C3000005B0001005A000100590001005800013A
:101C4000005700010056000100550001005400013A
:101C50000053000000530001005200010051000138
:101C600000500001004F0001004E0000004E000136
:101C7000004D0001004C0001004B0000004B000132
:101C8000004A00010049000100480000004800012E
:101C9000004700010046000000460001004500002A
:101CA0000045000100440001004300000043000122
:101CB000004200000042000100410000004100011C
:101CC00000400001003F0000003F0001003E000016
:101CD000003E0001003D0000003D0001003C00000E
:101CE000003C0000003C0001003B0000003B000104
:101CF000003A0000003A00010039000000390001FC
:101D000000380000003800000038000100370000F3
:101D100000370001003600000036000000360001E8
:101D200000350000003500000035000100340000DF
:101D300000340000003400010033000000330000D4
:101D400000330001003200000032000000320001C8
:101D500000310000003100000031000100300000BF
:101D60000030000000300001002F0000002F0000B4
:101D7000002F0000002F0001002E0000002E0000A8
:101D8000002E0001002D0000002D0000002D00009D
:101D9000002D0001002C0000002C0000002C000091
:101DA000002C0001002B0000002B0000002B000085
:101DB000002B0001002A0000002A0000002A000079
:101DC000002A00010029000000290000002900006D
:101DD0000029000000290001002800000028000060
:101DE0000028000000280000002800010027000053
:101DF0000027000000270000002700000027000146
:101E0000002600000026000000260000002600003A
:101E1000002600010025000000250000002500002C
:101E2000002500000025000000250001002400001E
:101E30000024000000240000002400000024000111
:101E40000023000000230000002300000023000006
:101E500000230000002300000023000100220000F6
:101E600000220000002200000022000000220000EA
:101E700000220001002100000021000000210000DC
:101E800000210000002100000021000000210001CD
:101E900000200000002000000020000000200000C2
:101EA00000200000002000000020000000200001B1
:101EB000001F0000001F0000001F0000001F0000A6
:101EC000001F0000001F0000001F0001001E000096
:101ED000001E0000001E0000001E0000003930003F
:101EE000003325000087190000B00F0000DB080058
:101EF00000BD040000740200003F0100002364657F
:101F000066696E652044454641554C545F4B6420DC
:101F10000023646566696E652044454641554C540E
:101F20005F4B69200023646566696E652044454601
:101F300041554C545F4B702000504944204175740A
:101F40006F74756E652066696E69736865642120BB
:101F500050757420746865206C617374204B702C0C
:101F6000204B6920616E64204B6420636F6E737434
:101F7000616E74732066726F6D2062656C6F77207E
:101F8000696E746F20436F6E6669677572617469FC
:101F90006F6E2E680A00504944204175746F747545
:101FA0006E65206661696C6564212074696D656F7A
:101FB00075740A00453420544845524D414C205216
:101FC000554E4157415900453320544845524D41E3
:101FD0004C2052554E4157415900453220544845F6
:101FE000524D414C2052554E4157415900453120E8
:101FF000544845524D414C2052554E41574159008D
:10200000546865726D616C2052756E6177617900FC
:1020100045342048656174696E67206661696C6546
:10202000640045332048656174696E6720666169A4
:102030006C65640045322048656174696E6720668E
:1020400061696C65640045312048656174696E673B
:10205000206661696C65640048656174696E67201B
:102060006661696C656400504944204175746F7401
:10207000756E65206661696C6564212054656D70BC
:102080006572617475726520746F6F206869676826
:102090000A00204B643A2000204B693A2000204B74
:1020A000703A20000A20436C6173736963205049C1
:1020B00044200A002054753A2000204B753A200035
:1020C000206D61783A2000206D696E3A200020640E
:1020D0003A200020626961733A200050494420414F
:1020E00075746F74756E652073746172740A005034
:1020F0004944204175746F74756E65206661696C22
:10210000656421204261642065787472756465722B
:10211000206E756D6265720A006265640A002C208B
:1021200073797374656D2073746F707065642120AA
:102130004865617465725F49443A200042656420D5
:1021400068656174696E67206661696C65640048E2
:10215000656174696E67206661696C65640045310C
:102160002048656174696E67206661696C6564000A
:1021700045342048656174696E67206661696C65E5
:10218000640045332048656174696E672066616943
:102190006C65640045322048656174696E6720662D
:1021A00061696C65640048656174696E6720666189
:1021B000696C6564001000600350012C01900122DD
:1021C00001D001180110020E0170020401E002FAB0
:1021D000006003F0000004E600B004DC00A005D2BB
:1021E00000B006C8000008BE00A009B400800BAA19
:1021F00000D00DA00090109600C0138C00701782C4
:1022000000901B780010206E00C0246400E02D5068
:102210000080353C00A03A2800A03D1400003F009B
:1022200000A03FECFF4534204572723A204D4158E2
:1022300054454D50004533204572723A204D415867
:1022400054454D50004532204572723A204D415858
:1022500054454D50004531204572723A204D415849
:1022600054454D50004572723A204D415854454DE9
:102270005020424544004D415854454D5020747201
:1022800069676765726564004534204572723A205B
:102290004D494E54454D50004533204572723A2009
:1022A0004D494E54454D50004532204572723A20FA
:1022B0004D494E54454D50004531204572723A20EB
:1022C0004D494E54454D50004572723A204D494E8D
:1022D00054454D5020424544004D494E54454D50C3
:1022E0002074726967676572656400202F00204062
:1022F000002042403A0020403A0000002100240023
:1023000027002A002D0030003300010100000401E5
:1023100007010A0100002200250028002B002E00E2
:102320003100340002010000050108010B0100002A
:1023300020002300260029002C002F00320000017D
:102340000000030106010901050505050705080848
:102350000808020202020A0A08080404040401012F
:102360000101010101010303030303030303040744
:1023700007070C0C0C0C0C0C0C0C020202020606DB
:102380000606060606060B0B0B0B0B0B0B0B0102CE
:102390001020200808102040102040800201020177
:1023A000080402010102040810204080804020102F
:1023B0000804020180040201804020100804020188
:1023C00008040201010204081020408001020408F0
:1023D0001020408000000A0B02090C0D0E080703B4
:1023E00004010000000000000000000000000000E8
:1023F00000000000000000000000000000000000DD
:102400001211100000000000000000000000000099
:102410000000000000000000000047322F4733207A
:1024200062616420706172616D65746572730A0027
:102430003C3C3C204732380A003E20686F6D696E94
:1024400067206E6F74206E65656465642C20736B05
:1024500069700A003C3C3C204732380A00526169EE
:102460007365205A20286265666F726520686F6DFB
:10247000696E672920746F20003E20656E64737456
:102480006F70732E656E61626C6528747275652954
:102490000A003E3E3E204732380A00205A3A2000C9
:1024A00020593A200042656420583A20004D657357
:1024B0006820706F696E742063616E6E6F74206245
:1024C00065207265736F6C7665640A005072696E80
:1024D000742074696D653A20006F666600150310FC
:1024E0000309030203F402EB0244454255473A0054
:1024F0004D3131332053006F6B00544845524D41EC
:102500004C5F50524F54454354494F4E004155542F
:102510004F5245504F52545F53445F5354415455AA
:102520005300454D455247454E43595F5041525324
:10253000455200434153455F4C494748545F42521E
:10254000494748544E45535300544F47474C455F05
:102550004C494748545300534F4654574152455FE6
:10256000504F574552004255494C445F50455243E5
:10257000454E54004C4556454C494E475F444154E6
:1025800041005A5F50524F4245004155544F4C450F
:1025900056454C005052494E545F4A4F42005052EB
:1025A0004F4752455353004155544F5245504F5297
:1025B000545F54454D5000564F4C554D455452496B
:1025C0004300454550524F4D0053455249414C5FE1
:1025D000584F4E5F584F4646004649524D5741525C
:1025E000455F4E414D453A4D61726C696E205644CF
:1025F00032305F3230303932325F3137323420534B
:102600004F555243455F434F44455F55524C3A68DE
:10261000747470733A2F2F6769746875622E636FD4
:102620006D2F467261636B74616C576F726B732FA1
:102630004A756C6961323031384D61726C696E3146
:1026400031392050524F544F434F4C5F56455253EF
:10265000494F4E3A312E30204D414348494E455F57
:10266000545950453A566F6C7465727261204475C6
:10267000616C2045585452554445525F434F554E66
:10268000543A3420555549443A303130386135395F
:10269000392D336239352D343138362D61363336A4
:1026A0002D3036396562353938373963300A002FB5
:1026B0002F2000205400205200416363656C657236
:1026C0006174696F6E3A2050003F4A206F75742024
:1026D0006F662072616E67652028302E303120745D
:1026E0006F20302E33290A00000020C20000C843AA
:1026F0000000D243546F6F206661722066726F6D66
:10270000207265666572656E636520706F696E74B0
:102710000A00FF010120466C6F773A200000013665
:10272000372603FFFFFF353C3D38FF0FFFFF312EFB
:10273000303EFF13FFFFFF28280C0809FFFFFF1A98
:102740001C18FFFF2A24221EFFFF2C24221EFFFF3D
:102750002C24221EFFFFFF2C08440AFF4207FF41E2
:102760002CFF432AFF45206F7574206F662072612D
:102770006E67650A00536572766F2000496E766158
:102780006C69642065787472756465720A002064EF
:102790003A0020693A0020703A0043290A00616239
:1027A0006C656420286D696E2074656D702000432F
:1027B0006F6C6420657874727564657320617265EE
:1027C00020004E6F2063617365206C696768740A2E
:1027D000004D65736820706F696E742063616E6E62
:1027E0006F74206265207265736F6C7665640A0091
:1027F0004D34323120696E636F727265637420707C
:102800006172616D657465722075736167650A0038
:10281000454550524F4D204F4B0A003F5A206F758F
:1028200074206F662072616E676520282D3230201B
:10283000746F203230290A003A200050726F6265AE
:10284000205A204F6666736574003C3C3C206763E9
:102850006F64655F540A00203A2041465445520A8D
:1028600000202063757272656E745F706F73697497
:10287000696F6E3D00203A204245464F52450A009E
:10288000202063757272656E745F706F736974690E
:102890006F6E3D003E3E3E2067636F64655F542867
:1028A0000020503A00205A3A0020593A0020583A65
:1028B00000656E6473746F7073206869743A2000E9
:1028C000556E6B6E6F776E20636F6D6D616E643ADF
:1028D000202200203A203C3C3C2072756E5F7A5FDB
:1028E00070726F62650A00202063757272656E7483
:1028F0005F706F736974696F6E3D00204469736324
:10290000726570616E63793A00326E642050726F46
:102910006265205A3A00203A203C3C3C2072756E99
:102920005F7A5F70726F62650A0020206375727251
:10293000656E745F706F736974696F6E3D00534CA0
:102940004F572050726F6265206661696C210A00E2
:102950003173742050726F6265205A3A00203A2019
:102960003C3C3C2072756E5F7A5F70726F62650AE4
:1029700000202063757272656E745F706F73697486
:10298000696F6E3D00464153542050726F6265205E
:102990006661696C210A00203A203E3E3E20727535
:1029A0006E5F7A5F70726F62650A002020637572D5
:1029B00072656E745F706F736974696F6E3D003C11
:1029C0003C3C2070726F62655F70740A0050726FD9
:1029D00062696E67206661696C65640A0050524FD7
:1029E00042494E475F4641494C45440A00205A3A05
:1029F000200020593A200042656420583A200020E7
:102A00003A200A00202063757272656E745F706FE1
:102A1000736974696F6E3D005F72656C617469768D
:102A200065290A002C20002C20002C20002C2000DE
:102A30003E3E3E2070726F62655F707428002066B3
:102A4000697273740A005A0059005800486F6D6526
:102A500020006563686F3A00453420544845524D64
:102A6000414C2052554E415741590045332054485E
:102A700045524D414C2052554E4157415900453227
:102A800020544845524D414C2052554E41574159D2
:102A900000453120544845524D414C2052554E413D
:102AA0005741590042454420544845524D414C201D
:102AB00052554E4157415900546865726D616C2002
:102AC00052756E61776179005072696E746572201B
:102AD00068616C7465642E206B696C6C28292063B6
:102AE000616C6C6564210A004572726F723A000075
:102AF00029A011241FBECFEFD1E2DEBFCDBF00E081
:102B00000CBF13E0A0E0B2E0E2E1F3E801E00BBFAC
:102B100002C007900D92A037B107D9F720E1A0E7D6
:102B2000B3E001C01D92A131B207E1F715E1C9E799
:102B3000D5E100E006C021970109802FFE010E9427
:102B40003EC1C837D10780E00807A9F70E9464A0FA
:102B50000C9487C10C940000FC01DB018C91208156
:102B60003181382798E0A901220F331F57FD05C096
:102B70009150C9F7318320830895B1E22B27B0E14A
:102B80003B27F6CF8150823108F05AC0E82FF0E0A1
:102B90008827E253FA4E8F4F0C943EC1EE15F21582
:102BA000E015E615EA152016F515FB15FF150516B7
:102BB00009160D161316171620161B1621162516A4
:102BC000809180008F7780938000089580918000AD
:102BD0008F7DF9CF80918000877FF5CF84B58F7787
:102BE00084BD089584B58F7DFBCF8091B0008F7731
:102BF0008093B00008958091B0008F7DF9CF8091CF
:102C000090008F77809390000895809190008F7D41
:102C1000F9CF80919000877FF5CF8091A0008F77CA
:102C20008093A00008958091A0008F7DF9CF8091BE
:102C3000A000877FF5CF809120018F7780932001BE
:102C40000895809120018F7DF9CF80912001877FA9
:102C5000F5CFCF93DF93282F30E0F901EC52FC4DF4
:102C60008491F901E257FC4DD491F901E85BFC4DE8
:102C7000C491CC23A1F081110E94C215EC2FF0E089
:102C8000EE0FFF1FE25DFC4DA591B491EC91ED2399
:102C900081E090E009F480E0DF91CF91089580E039
:102CA00090E0FACF1F93CF93DF93282F30E0F90104
:102CB000EC52FC4D8491F901E257FC4DD491F9019D
:102CC000E85BFC4DC491CC23A9F0162F81110E9422
:102CD000C215EC2FF0E0EE0FFF1FEC5EFC4DA5914E
:102CE000B4918FB7F894EC91111108C0D095DE2300
:102CF000DC938FBFDF91CF911F910895DE2BF8CF2A
:102D0000CF93DF9390E0FC01E257FC4D2491885B68
:102D10009C4DFC0184918823D1F090E0880F991F8D
:102D2000FC01E650FD4DA591B491FC01EC5EFC4D1B
:102D3000C591D49161110EC09FB7F8948C91E22F88
:102D4000E0958E238C932881E223E8839FBFDF9157
:102D5000CF9108958FB7F894EC91E22BEC938FBF4D
:102D6000F6CF1F93CF93DF93182FEB0161E00E9402
:102D70008016209739F460E0812FDF91CF911F9169
:102D80000C945216CF3FD10511F461E0F5CFE12F3D
:102D9000F0E0EC52FC4DE491E150E23108F0B3C0B8
:102DA000F0E08827E952F94E8F4F0C943EC1E916A6
:102DB000F116F61600170A17831714171C17241795
:102DC0002E173817421751175B17831765176F17A0
:102DD000791784B5806884BDC7BDDF91CF911F91FD
:102DE000089584B5806284BDC8BDF7CF809180000E
:102DF000806880938000D0938900C0938800EDCFD5
:102E000080918000806280938000D0938B00C0937B
:102E10008A00E3CF80918000886080938000D09307
:102E20008D00C0938C00D9CF8091B00080688093D2
:102E3000B000C093B300D1CF8091B0008062809386
:102E4000B000C093B400C9CF809190008068809397
:102E50009000D0939900C0939800BFCF80919000CC
:102E6000806280939000D0939B00C0939A00B5CF6E
:102E700080919000886080939000D0939D00C093D3
:102E80009C00ABCF8091A00080688093A0008091CF
:102E9000A0008F7B8093A000D093A900C093A800CE
:102EA0009CCF8091A00080628093A000D093AB0063
:102EB000C093AA0092CF8091A00088608093A00068
:102EC000D093AD00C093AC0088CF80912001806882
:102ED00080932001D0932901C09328017ECF809157
:102EE0002001806280932001D0932B01C0932A019E
:102EF00074CF80912001886080932001D0932D01B0
:102F0000C0932C016ACFC038D1050CF03ECF33CF2F
:102F1000789484B5826084BD84B5816084BD85B5B4
:102F2000826085BD85B5816085BDEEE6F0E080817B
:102F300081608083E1E8F0E010828081826080839C
:102F4000808181608083E0E8F0E08081816080831F
:102F5000E1EBF0E0808184608083E0EBF0E0808151
:102F600081608083E1E9F0E08081826080838081FC
:102F700081608083E0E9F0E0808181608083E1EA24
:102F8000F0E0808182608083808181608083E0EADC
:102F9000F0E0808181608083E1E2F1E08081826005
:102FA0008083808181608083E0E2F1E080818160C4
:102FB0008083EAE7F0E080818460808380818260A2
:102FC000808380818160808380818068808310928B
:102FD000C10008953FB7F8948091190C90911A0C94
:102FE000A0911B0CB0911C0C26B5A89B05C02F3FCF
:102FF00019F00196A11DB11D3FBFBA2FA92F982F1F
:103000008827BC01CD01620F711D811D911D42E019
:10301000660F771F881F991F4A95D1F708958F92E1
:103020009F92AF92BF92CF92DF92EF92FF926B018D
:103030007C010E94EA174B015C01C114D104E10438
:10304000F104B9F00E94EA17681979098A099B0905
:10305000683E73408105910580F321E0C21AD108D2
:10306000E108F10888EE880E83E0981EA11CB11CCF
:10307000E4CFFF90EF90DF90CF90BF90AF909F9004
:103080008F9008952FB7F8946091150C7091160CDD
:103090008091170C9091180C2FBF08958F929F92DA
:1030A000AF92BF92CF92DF92EF92FF920F931F9356
:1030B000CF93DF93DC0170E0FB01EE0FFF1FE05EBA
:1030C000FC4F20813181645E7C4FFB019081D92EC1
:1030D00080E0E82EF12CB7016D0D711D7595679597
:1030E000681711F0D61222C0492F4150550BFA0132
:1030F000EE0FFF1FEE0FFF1F3296E20FF31F6591D9
:103100007491072E000C880B990B0E9476B9DF9101
:10311000CF911F910F91FF90EF90DF90CF90BF90D4
:10312000AF909F908F900895D62ED5CFAB01415090
:103130005109440F551F440F551FF901E40FF51FA6
:1031400005911491FA013496E20FF31FC591D491C1
:10315000A017B1074CF3862FCA17DB070CF4B9CFC1
:10316000FA013296E20FF31FE590F490FA013696D9
:10317000E20FF31FC590D490BD01601B710B072EA9
:10318000000C880B990B0E9476B94B015C01B601CB
:103190006E197F09072E000C880B990B0E9476B9D7
:1031A0009B01AC01C501B4010E94D5B94B015C0182
:1031B000BE01601B710B072E000C880B990B0E943F
:1031C00076B99B01AC01C501B4010E94F2BE4B016E
:1031D0005C01B701FF0C880B990B0E9476B99B012B
:1031E000AC01C501B4010E94F8BD91CFCF92DF922E
:1031F000EF92FF92C090000CD090010CE090020C76
:10320000F090030C6091710C7091720C6650710912
:10321000072E000C880B990B0E9476B9A701960126
:103220000E9458C018160CF520E030E040E050E451
:10323000C701B6010E94F8BD0E946BBF7093D80B06
:103240006093D70B0E9442186058774C8E4F9F4F67
:103250006093D30B7093D40B8093D50B9093D60BC4
:10326000FF90EF90DF90CF9008951092D30B1092C3
:10327000D40B1092D50B1092D60BF2CFCF92DF92D7
:10328000EF92FF920F931F93CF93DF93C82FD0E05D
:103290008E01000F111F000F111FF801EC5FF34F9B
:1032A000C080D180E280F380CC0FDD1FFE01EC599D
:1032B000F34F6081718167507109072E000C880BF4
:1032C000990B0E9476B9A70196010E9458C0055437
:1032D000144F181614F5C553D44F20E030E040E0E9
:1032E00050E4C701B6010E94F8BD0E946BBF79830C
:1032F00068830E94421860547B428E4F9F4FF801B2
:103300006083718382839383DF91CF911F910F91AB
:10331000FF90EF90DF90CF900895F8011082118216
:1033200012821382F1CF8F929F92AF92BF92CF926F
:10333000DF92EF92FF920F931F93CF93DF93BCE145
:10334000A0E06A2F70E0AB014B0F511D55954795DA
:10335000A41711F0B41319C0E3E2F2E2659174917D
:10336000072E000C880B990B0E9476B9DF91CF9144
:103370001F910F91FF90EF90DF90CF90BF90AF9093
:103380009F908F900895B42FDECF9A01215031097C
:10339000220F331F220F331FF901EB54FE4DE5902E
:1033A000F490F901E754FE4DC591D4918E159F0517
:1033B00054F3A42FC817D9070CF4C3CFF901E9546B
:1033C000FE4D05911491F901E554FE4DC590D49040
:1033D000BC016E197F09072E000C880B990B0E9407
:1033E00076B94B015C01B601601B710B072E000C16
:1033F000880B990B0E9476B99B01AC01C501B40101
:103400000E94D5B94B015C01BE016E197F09072EE0
:10341000000C880B990B0E9476B99B01AC01C50189
:10342000B4010E94F2BE6B017C01B801110F880B40
:10343000990B0E9476B99B01AC01C701B6010E94AD
:10344000F8BD94CF0F931F938091630C813019F5D1
:103450000E94421800915D0B10915E0B20915F0B52
:103460003091600B601B710B820B930B28EE33E0E5
:1034700040E050E00E9494BD6091590B70915A0B4E
:1034800080915B0B90915C0B620F731F841F951FE3
:103490001F910F91089560915F0C7091600C809165
:1034A000610C9091620CD6CF1092630C10925D0B60
:1034B00010925E0B10925F0B1092600B10925F0CDB
:1034C0001092600C1092610C1092620C1092590BC9
:1034D00010925A0B10925B0B10925C0B08950F9395
:1034E0001F93CF93DF93C82F80916F00D82FD27096
:1034F00081FF05C080916F008D7F80936F00609188
:10350000430C7091440C8091450C9091460C0091B5
:10351000470C1091480C2091490C30914A0CC13055
:1035200039F5601B710B820B930B0E9476B920E07A
:1035300030E040E05FE30E94D5B90E9464BF24E020
:10354000C29FF0011124E35BF44F60837183828397
:10355000938381E080934C0BDD2329F080916F00F1
:10356000826080936F00DF91CF911F910F9108953A
:10357000600F711F821F931FD8CF90916F00292F6A
:10358000227091FF05C090916F009D7F90936F0016
:1035900094E0899FF0011124ED5BF34F608171810C
:1035A00082819381222329F020916F002260209351
:1035B0006F000895BC0120914A0B30914B0B409154
:1035C0004A0B50914B0B2417350731F481E0261735
:1035D000370709F080E008959A01F1CFEF92FF924A
:1035E0000F931F93E0927D03F0927E0300937F037D
:1035F000109380036093810370938203809383030D
:103600009FEFFF27621B730B840B30F4809570953E
:103610006195790B890B992790937C03A6E06A9FAB
:1036200000927003512DEE277A9F500DE11D8A9F65
:10363000E00D50937103E0937203AFE06A9F009234
:103640007403512DEE277A9F500DE11D8A9FE00DE6
:1036500050937503E0937603AAE06A9F0092780383
:10366000512DEE277A9F500DE11D8A9FE00D50935A
:103670007903E0937A031F910F91FF90EF900895E3
:103680008091050B80FF2EC089988FEF8093010BEE
:103690008091050B81FF29C08F988FEF8093020BDB
:1036A0008091050B82FF24C080910B018095827070
:1036B000809309018FEF8093030B8091060B90910B
:1036C000050B93FF26C0813011F1CCF48823E9F07B
:1036D0008FEF8093040B0000000082E08A950000C9
:1036E000E9F70895899A81E0D1CF8F9A81E0D6CF0A
:1036F00080910B0182708093090181E0DCCF8230E0
:1037000011F0833029F74398E3CF1698E1CF439A1D
:10371000DFCF813069F024F4882341F081E0D9CFF4
:10372000823011F08330D1F7439AF8CF169AF6CF52
:103730004398F4CF8091750F9091760F891B8F700D
:1037400019F490E080E008959091720F992351F060
:10375000833030F48FEF890F19F08093720FF1CF1F
:103760001092720F8091760F2DE5829FC001112477
:103770008F5C9A4FFC01208120FDE3CF2091760FD2
:103780002F5F2F702093730F3091760F2091740F5D
:10379000321304C02091730F2093740F0895009783
:1037A00081F41092900082E0809391001092950035
:1037B00010929400C19A8091710082608093710090
:1037C00008958130910569F41092A00082E0809301
:1037D000A1001092A5001092A40089BB80937200F2
:1037E0000895029761F41092200182E080932101F4
:1037F00010922501109224018ABB809373000895D2
:10380000AF92BF92CF92DF92EF92FF920F931F93EE
:10381000CF93DF936B017A01EC01C25DDA4F28810F
:103820003CE0389F8001399F100D1124A0900710B3
:10383000B12C27FF1FC0FB011182108288818F5F8E
:10384000888388819801280F311D87FD3A95F601FC
:103850002A153B051CF488818C30C4F1808191814C
:10386000049680349C4908F473C0F60180819181EC
:10387000049670C088819801280F311D87FD3A9504
:103880002A153B05DCF68881A801480F511D87FDEC
:103890005A95FA01EE0FFF1FE40FF51FE556F04FA2
:1038A000808186FFCBCF8881F801E80FF11D87FD6D
:1038B000FA95CF01EE0FFF1FE80FF91FE556F04F05
:1038C000808160E08F730E945216B8CF8081918111
:1038D0002881A801420F511D27FD5A959A01FA012E
:1038E000EE0FFF1FE20FF31FE556F04F21813281EB
:1038F000820F931FF7019183808388819801280F9D
:10390000311D87FD3A95F901EE0FFF1FE20FF31FFE
:10391000E556F04F808186FF22C08881080F111D77
:1039200087FD1A95F801EE0FFF1FE00FF11FE55616
:10393000F04F808161E08F73DF91CF911F910F91E4
:10394000FF90EF90DF90CF90BF90AF900C94521605
:1039500080E49CE9F701918380838FEF8883DF9176
:10396000CF911F910F91FF90EF90DF90CF90BF907C
:10397000AF900895CF93C091630C80E0C13069F19E
:10398000C23069F50E94221A6093590B70935A0B4A
:1039900080935B0B90935C0B81E08093630C0E949F
:1039A000421860935D0B70935E0B80935F0B909356
:1039B000600BC23089F080911E0590911F05019621
:1039C00090931F0580931E0510921A0510921B05F7
:1039D00010921C0510921D0581E0CF9108950E9460
:1039E000541ADACF9F92AF92BF92CF92DF92EF92AA
:1039F000FF920F931F93CF93DF9300D01F921F92DC
:103A0000CDB7DEB7E7E7F5E10027BB27462F572FF5
:103A1000A82FAA2341F4A52F542FB85FAA2319F485
:103A2000A52F5527B85FA03138F45295A295452FA0
:103A30004F70507FA42BBC5FA03428F4550FAA1FF1
:103A4000550FAA1FBE5FA03818F4550FAA1FB395D3
:103A5000550FAA1FEA0FF01F449151E0AA27B85052
:103A600081F1C8F0B0FF02C0440F551FB1FF04C080
:103A7000440F551F440F551FB2FF06C05295429583
:103A8000142F1F70407F512BB3FF1BC0A52F542F45
:103A900044270C94611DB195B0FF02C05595479520
:103AA000B1FF04C05595479555954795B2FF05C0A0
:103AB0005295407F4295452B5F70B3FF02C0452F62
:103AC0005527DD24CC24BB24B2E0649FD018C10864
:103AD000B00AB00B749FC018B108B00B849FB01827
:103AE000B109659FC018B108B00B759FB018B10936
:103AF000859FB0196A9FB018B1097A9FB0194D9D82
:103B0000A12C99243327992722275D9DA00C911C75
:103B1000301F901F201FAD9D900C311D901F201F46
:103B20004C9DA00C911C301F901F201F5C9D900C81
:103B3000311D901F201FAC9D300D911D201F4B9DEE
:103B4000900C311D901F201F5B9D300D911D201F7B
:103B5000AB9D900D211D4B9F300D911D201F5B9F34
:103B6000900D211DAB9F200DB1E0BB24CC24DD24A2
:103B7000639FD018C108B00AB00B739FC018B1087A
:103B8000B00B839FB018B109699FC018B108B00B82
:103B9000799FB018B109899FB019629FB018B10917
:103BA000729FB019D61AC70AB80A20F0B1E03B0FCD
:103BB000901F201F1124792F632F90E0822F0F90E8
:103BC0000F900F900F900F90DF91CF911F910F9159
:103BD000FF90EF90DF90CF90BF90AF909F900895AF
:103BE0004F925F926F927F928F929F92AF92BF920D
:103BF000EF92FF920F931F93CF93DF93C2EADCE023
:103C000082E3E82E8DE0F82E0DE71CE0412C512CCC
:103C1000320143946991799189919991F701819049
:103C20009190A190B1907F010E9474B9A501940177
:103C30000E94D5B90E946BBFF80161937193819383
:103C400091938F01461657066806790610F42B01EA
:103C50003C01FCE0C23BDF07E9F66FEF7FEFCB01F1
:103C6000A30192010E9494BD20930505309306059F
:103C70004093070550930805DF91CF911F910F9155
:103C8000FF90EF90BF90AF909F908F907F906F903C
:103C90005F904F900895CF93DF9390916F00292FFD
:103CA000227091FF05C090916F009D7F90936F00EF
:103CB00094E0899FA0011124FA01E35BF44F608135
:103CC000718182819381222329F020916F002260EB
:103CD00020936F00EA01C75FDA4F0E9476B928810E
:103CE00039814A815B810E94D5B9DF91CF910895D6
:103CF0007F928F929F92AF92BF92CF92DF92EF927C
:103D0000FF920F931F93CF93DF937090A10CCCE1A0
:103D1000DDE095E5C92E92E0D92E25E4E22E22E0E1
:103D2000F22E01E91CE0772009F45EC0F8018080E2
:103D30009180A280B38020E030E0A901C501B401E8
:103D40000E946FB9882309F44FC020E030E040E0C2
:103D50005FE3C501B4010E94D5B99B01AC010E948B
:103D6000D5B92BED3FE049E450E40E94D5B99B0161
:103D7000AC0160E070E080E89FE30E94F2BE4B017E
:103D80005C0189929992A992B992F601619171911F
:103D90006F01072E000C880B990B0E9476B92AE060
:103DA00037ED43E25CE30E94D5B9A50194010E947E
:103DB000D5B9F70161937193819391937F010C5F62
:103DC0001F4FFDE0CC32DF0709F0ADCFDF91CF917F
:103DD0001F910F91FF90EF90DF90CF90BF90AF9029
:103DE0009F908F907F900895812C912C80E8A82E31
:103DF0008FE3B82EC6CFCF93DF938091900C8111C3
:103E000005C08091F304882309F46CC08091F2040A
:103E1000659958C08E7F8093F20490910301809140
:103E2000F20490FF51C080628093F2048091F2040A
:103E300091994CC0877F8093F2048091F2044A9953
:103E400047C08F7B8093F204C0913D0BC0FF10C030
:103E50008091050B84FF0CC08091F20480FF08C0A4
:103E600080911F0F816080931F0F80E00E946F1A66
:103E7000C1FF10C08091050B85FD0CC08091F2043C
:103E800085FF08C080911F0F806280931F0F81E023
:103E90000E946F1AC2FF26C08091050B82FF1AC0D4
:103EA0008091F3048823F1F08091F20483FF1AC01B
:103EB00080911F0F886080931F0F82E0DF91CF9168
:103EC0000C946F1A8160A7CF8F7DAECF8860B3CF7F
:103ED0008064B8CF8091F20486FF04C080911F0FE8
:103EE0008064E9CFDF91CF910895CF92DF92EF9276
:103EF000FF92CF93DF93EC01C090E504D090E604ED
:103F0000E090E704F090E804A701960168817981C8
:103F10008A819B810E946FB987FF04C0C882D982C1
:103F2000EA82FB82C090E904D090EA04E090EB04BE
:103F3000F090EC04A70196016C817D818E819F81B8
:103F40000E946FB987FF04C0CC82DD82EE82FF82BF
:103F5000C0900A02D0900B02E0900C02F0900D028B
:103F6000A7019601688179818A819B810E9458C04E
:103F7000181624F4C882D982EA82FB82C0900E020D
:103F8000D0900F02E0901002F0901102A70196016C
:103F90006C817D818E819F810E9458C0181624F407
:103FA000CC82DD82EE82FF82C090ED04D090EE04E0
:103FB000E090EF04F090F004A70196016885798500
:103FC0008A859B850E946FB987FF04C0C886D98601
:103FD000EA86FB86C0901202D0901302E090140291
:103FE000F0901502A7019601688579858A859B85E1
:103FF0000E9458C0181624F4C886D986EA86FB8623
:10400000DF91CF91FF90EF90DF90CF9008954F9286
:104010005F926F927F928F929F92AF92BF92CF9258
:10402000DF92EF92FF92CF934B015C0169017A011D
:1040300020E030E040E251E40E94F7BD2B013C015A
:104040002FE632E143E85AEB0E9458C087FD50C08A
:1040500021E230E845EC53E4C301B2010E946FB99C
:1040600018160CF445C020E030E040E251E4C701EE
:10407000B6010E94F7BD2B013C012FE632E143E877
:104080005AEB0E9458C087FD33C021E230E048EC73
:1040900053E4C301B2010E946FB918164CF124EF2A
:1040A0003DEF47EC51E4C501B4010E9458C087FDC3
:1040B0001FC021E230E848EB53E4C501B4010E947F
:1040C0006FB91816ACF024EF3DEF47EC51E4C7018F
:1040D000B6010E9458C087FD0BC0C1E021E230E864
:1040E0004BEB53E4C701B6010E946FB918160CF4EC
:1040F000C0E08C2FCF91FF90EF90DF90CF90BF90DA
:10410000AF909F908F907F906F905F904F900895A9
:10411000129A479A479A479A08955F9A8091350F65
:104120008E7F8093350F8A9A8091350F8D7F809393
:10413000350F8091080180958170809306018091F0
:10414000350F8B7F8093350F0C948820CF92DF92B0
:10415000EF92FF9260913B0C70913C0C072E000C8B
:10416000880B990B0E9476B96B017C012DEB37E32C
:1041700046E855EB0E9458C087FD0BC02DEB37E396
:1041800046E855E3C701B6010E946FB918160CF056
:1041900043C0A701960160E070E080E89FE30E94C1
:1041A000F2BE6093A1047093A2048093A304909341
:1041B000A40460913D0C70913E0C072E000C880BFE
:1041C000990B0E9476B96B017C012DEB37E346E831
:1041D00055EB0E9458C087FD0AC02DEB37E346E837
:1041E00055E3C701B6010E946FB91816CCF4A701B8
:1041F000960160E070E080E89FE30E94F2BE609369
:10420000A5047093A6048093A7049093A804FF903C
:10421000EF90DF90CF90089560E070E0CB01C1CFC8
:1042200060E070E0CB01EBCF90918503E92FF0E0E7
:10423000EF56F24F80839F5F943040F49093850354
:104240008091210F8F5F8093210F08951092850335
:10425000F7CF2FEB280F2A3108F042C0E22FF0E011
:104260008091370C9091380CA091390CB0913A0C98
:1042700004C0B695A795979587952A95D2F780FDA6
:1042800002C081700895E35EF34FE081EE2329F1CF
:104290008091220F9091230FE80FF92FF11D80815B
:1042A00090ED980F9A3030F08E3251F48181805326
:1042B0008A3098F4F093CF0CE093CE0C81E008950F
:1042C0008D3211F08B3249F4818190ED980F9A3044
:1042D00088F38E3211F48281EACFF0E0E0E0EACF99
:1042E00080E008950E942921882341F081E02091F7
:1042F000CE0C3091CF0C232B09F480E0089580E19F
:10430000EAE3FFE0A4E2BFE001900D928A95E1F7B5
:1043100008959091C00095FFFCCF8093C60008954A
:10432000FF920F931F93CF93DF938091570F082F26
:104330000270182F1470982F9170F92E80FD11C003
:10434000C2E5DAE2FE0184912196811115C0CCE428
:10435000DAE2FE0184912196882389F00E94892166
:10436000F8CF002369F380E0112351F3DF91CF915F
:104370001F910F91FF9008950E948921E3CFF110C2
:104380000AC0CAE4DAE2FE0184912196882319F07A
:104390000E948921F8CF01110AC0C8E4DAE2FE01C7
:1043A00084912196882319F00E948921F8CF111158
:1043B0000AC0C6E4DAE2FE0184912196882319F04E
:1043C0000E948921F8CFCEE3DAE2FE0184912196A2
:1043D000882319F00E948921F8CF81E0C7CF1F936D
:1043E000CF93DF93162FEC01FE0184912196882351
:1043F00019F00E948921F8CF812FDF91CF911F9171
:104400000C9489210F931F93CF93DF93162F072FBF
:10441000EC01FE0184912196811108C0C12FD02F9B
:104420008991882331F00E948921FACF0E94892145
:10443000F0CFDF91CF911F910F910895CF93DF932C
:10444000C2E5DAE2FE0184912196882319F00E94E8
:104450008921F8CF6091220F7091230F80EC98E2B0
:104460000E94022282E20E9489218AE0DF91CF919C
:104470000C948921CF93DF93C7E6D3E1FE018491A9
:10448000219681110AC0CFE5D3E1FE0184912196E6
:10449000882331F00E948921F8CF0E948921EECF34
:1044A000659908C0C6E3D3E08991882331F00E9462
:1044B0008921FACFCCE2D3E0F7CF8AE00E948921AC
:1044C000C7E5D3E1FE0184912196882319F00E946B
:1044D0008921F8CF80910301C6E3D3E080FF02C0B9
:1044E000CCE2D3E08991882319F00E948921FACF88
:1044F0008AE00E948921CFE4D3E1FE0184912196D4
:10450000882319F00E948921F8CF4A9B08C0CCE289
:10451000D3E08991882331F00E948921FACFC6E344
:10452000D3E0F7CF8AE00E948921C5E4D3E1FE0100
:1045300084912196882319F00E948921F8CF919BBC
:1045400008C0CCE2D3E08991882331F00E94892110
:10455000FACFC6E3D3E0F7CF8AE0DF91CF910C9496
:104560008921CF93DF938F3C9240A1F0C8EEDAE22D
:10457000FE018491219681110AC0C1EBDFE0FE01AA
:1045800084912196882351F00E948921F8CF0E94BE
:104590008921EECF80E0DF91CF91089581E0FBCFBC
:1045A000CF93DF93C4E9DFE0FE0184912196882355
:1045B00019F00E948921F8CF8AE0DF91CF910C9405
:1045C0008921CF93DF93C8EEDAE2FE018491219630
:1045D00081110AC0C9EFD8E0FE0184912196882399
:1045E00031F00E948921F8CF0E948921EECFDF911E
:1045F000CF91089580917B0490917C042FEF3FEF41
:10460000981751F0E92FF0E0E550FC4F208130E0A1
:104610009F5F9F7790937C04C9010895CF92DF92AA
:10462000EF92FF92CF9380916F00C82FC27081FFED
:1046300005C080916F008D7F80936F0080E00E94A5
:10464000BD1A6B017C0181E00E94BD1A6C0D7D1DBD
:104650008E1D9F1D0E9476B920E030E040E05FE3B0
:104660000E94D5B99B01AC01CC2329F080916F0049
:10467000826080936F006091090570910A058091B6
:104680000B0590910C050E94D5B96093A904709315
:10469000AA048093AB049093AC0480916F00C82F60
:1046A000C27081FF05C080916F008D7F80936F0085
:1046B00080E00E94BD1A6B017C0181E00E94BD1A5E
:1046C000A7019601261B370B480B590BCA01B901EC
:1046D0000E9476B920E030E040E05FE30E94D5B967
:1046E0009B01AC01CC2329F080916F008260809304
:1046F0006F0060910D0570910E0580910F059091EE
:1047000010050E94D5B96093AD047093AE048093F8
:10471000AF049093B00482E00E94BD1A0E9476B963
:104720009B01AC01609111057091120580911305F8
:10473000909114050E94D5B96093B1047093B204AE
:104740008093B3049093B404CF91FF90EF90DF90E7
:10475000CF900895CF92DF92EF92FF920F931F9325
:10476000CF93DF93CDB7DEB7A0970FB6F894DEBF37
:104770000FBECDBF611571058105910579F100E08E
:10478000C42ED12CF12CE12CA70196010E9494BDDE
:1047900011E0100FE1E0F0E0EC0FFD1FE00FF11D64
:1047A00007FDFA956083B901CA01012F61157105F2
:1047B0008105910549F7115010F1E1E0F0E0EC0FAF
:1047C000FD1FE10FF11D17FDFA95908187E39A30E7
:1047D00008F480E3890F0E948921EDCF80E3A09641
:1047E0000FB6F894DEBF0FBECDBFDF91CF911F9102
:1047F0000F91FF90EF90DF90CF900C948921A096BD
:104800000FB6F894DEBF0FBECDBFDF91CF911F91E1
:104810000F91FF90EF90DF90CF900895CF92DF92AD
:10482000EF92FF92CF93DF936A017B01EC01FE01CF
:1048300084912196882319F00E948921F8CF4AE0BB
:10484000C701B601DF91CF91FF90EF90DF90CF903D
:104850000C94AA23CF92DF92EF92FF926B017C011E
:10486000F7FE0BC08DE20E948921F094E094D09471
:10487000C094C11CD11CE11CF11C4AE0C701B60167
:10488000FF90EF90DF90CF900C94AA230F931F938B
:10489000CF93DF93EB018C01F80184910F5F1F4FE1
:1048A000882319F00E948921F7CFBE01DD0F880B04
:1048B000990BDF91CF911F910F910C942A248F9225
:1048C0009F92AF92BF92CF92DF92EF92FF92CF93DF
:1048D000DF93C2E5DAE2FE0184912196882319F084
:1048E0000E948921F8CF70E060E08CE89FE00E9490
:1048F000462480910A1058E5C52E52E0D52EC81ADC
:10490000D10887FDD394CC0CDD1CCC0CDD1C0D2C08
:10491000000CEE08FF088091091078E8872E912C92
:10492000881A910887FD9394880C991C880C991C0F
:10493000092C000CAA08BB08809108108F3F09F4CD
:1049400042C090E0FC01EE0FFF1FE80FF91FE55693
:10495000F04F8181928133E0880F991F3A95E1F7FA
:10496000B0E0A0E044E0B595A795979587954A9566
:10497000D1F702969C012F5F3F4F032E000C440B92
:10498000550B281939094A095B09A4EBB0E00E94CC
:10499000D5BDA7019601281939094A095B090E946A
:1049A000B6BDB90189E89FE00E9446248AE0DF9104
:1049B000CF91FF90EF90DF90CF90BF90AF909F90FE
:1049C0008F900C94892190E080E0D4CFCF93DF9337
:1049D00080917B0480937C04C4E8DCE0FE01849138
:1049E0002196882319F00E948921F8CF60915A0FEF
:1049F00070915B0F80915C0F90915D0F6F5F7F4FA7
:104A00008F4F9F4F0E942A248AE00E948921E091C3
:104A1000200FF0E0EF56F24F8081882321F0DF91E4
:104A2000CF910C94D022DF91CF9108950F931F93D3
:104A3000CF93DF93182F092FC8EEDAE2FE0184919D
:104A4000219681110AC0C12FD02FFE018491219699
:104A5000882331F00E948921F8CF0E948921EECF6E
:104A600060915A0F70915B0F80915C0F90915D0F78
:104A70000E942A248AE00E9489210E94E624109242
:104A8000590F1092580FDF91CF911F910F910895F8
:104A9000FF920F931F93CF93DF93082FF92E162FBA
:104AA000C6ECDAE0FE0184912196811111C0C02F7D
:104AB000DF2DFE018491219681110DC0C4ECDAE056
:104AC000FE0184912196882349F00E948921F8CF24
:104AD0000E948921E7CF0E948921EBCF612F70E0EE
:104AE00090E080E00E942A248AE0DF91CF911F911C
:104AF0000F91FF900C9489218F929F92AF92BF9259
:104B0000CF92DF92EF92FF92CF936B017C01B42E94
:104B100020E030E0A9010E946FB987FF07C08DE255
:104B20000E948921F7FAF094F7F8F094C0E060E071
:104B300070E080E09FE3CB1541F02DEC3CEC4CECB9
:104B40005DE30E94D5B9CF5FF6CF9B01AC01C701F1
:104B5000B6010E94F8BD6B017C010E946BBF4B0146
:104B60005C014AE00E94AA23CC2391F1C501B40163
:104B70000E9474B99B01AC01C701B6010E94F7BD48
:104B80006B017C018EE20E948921C15008F120E076
:104B900030E040E251E4C701B6010E94D5B94B01B3
:104BA0005C010E9464BF6B01770FEE08FF08C7012C
:104BB000B6010E942A24C701B6010E9476B99B0162
:104BC000AC01C501B4010E94F7BD6B017C01DDCFD2
:104BD000CF91FF90EF90DF90CF90BF90AF909F90DC
:104BE0008F900895CF92DF92EF92FF92CF93DF9351
:104BF0006A017B01EC01FE0184912196882319F062
:104C00000E948921F8CF42E0C701B601DF91CF9120
:104C1000FF90EF90DF90CF900C947C25EF92FF9265
:104C20000F931F93CF937C018B01C42F80E20E94CE
:104C3000892184E5CF3F09F482E40E948921C7FDE0
:104C400004C080E38C0F0E9489218AE30E9489219D
:104C5000F701608171818281938142E00E947C250D
:104C6000F80140815181628173818BEE92E20E9452
:104C7000F22562E070E080E090E0CF911F910F910B
:104C8000FF90EF900C940F18AF92BF92CF92DF92EB
:104C9000EF92FF920F931F93CF93DF9300D000D03A
:104CA0001F921F92CDB7DEB700914F0D10E0F801B3
:104CB000EE0FFF1FEC59F34F60817181072E000C3E
:104CC000880B990B0E9476B96D837E838F839887BA
:104CD000F801EE0FFF1FEE0FFF1FEC5FF34F808117
:104CE0009181A281B38189839A83AB83BC834DEF89
:104CF000BE016B5F7F4FCE0101960E940E26609130
:104D0000710C7091720C072E000C880B990B0E948D
:104D100076B96D837E838F8398878091000C909104
:104D2000010CA091020CB091030C89839A83AB8390
:104D3000BC834FEFBE016B5F7F4FCE0101960E9497
:104D40000E2644E6A42E4CE0B42E54E0C52E5CE0C2
:104D5000D52EF12CF501619171915F01072E000CA8
:104D6000880B990B0E9476B96D837E838F83988719
:104D7000F60181919191A191B1916F0189839A83FB
:104D8000AB83BC834F2DBE016B5F7F4FCE0101967D
:104D90000E940E26F394F4E0FF12DCCF96EFE92E8A
:104DA00092E2F92EF7018491FFEFEF1AFF0A8823B0
:104DB00019F00E948921F6CFF801E550F44F608187
:104DC00070E090E080E00E942A2401EF12E2F801F6
:104DD00084910F5F1F4F882319F00E948921F7CF1C
:104DE0006091FF0B70E090E080E00E942A248BEF3E
:104DF000E82E8BE0F82E10E000E0B8018EEE92E293
:104E00000E9446248AE30E948921F70161917F0173
:104E100070E090E080E00E942A240F5F1F4F043072
:104E2000110559F728960FB6F894DEBF0FBECDBF17
:104E3000DF91CF911F910F91FF90EF90DF90CF9076
:104E4000BF90AF9008952F923F924F925F926F92D2
:104E50007F928F929F92AF92BF92CF92DF92EF920A
:104E6000FF920F931F93CF93DF93082F10E0E80179
:104E7000CC0FDD1FCC0FDD1FFE01ED5AF34F40803C
:104E8000518062807380CE01865B904F7C01FE0171
:104E9000E052F34F1F01A301920160817181828171
:104EA00093810E94F8BDF7016083718382839383AD
:104EB000FE01E156FB4F85909590A590B490FE01C0
:104EC000EB51FB4F80829182A282B382FE01E555B5
:104ED000FB4FC590D590E590F490C65FDD4FC8823A
:104EE000D982EA82FB828091560F85FF38C0F80193
:104EF000E85DFC4F60818EE095E00E94EF21F101BA
:104F0000408151816281738187EF94E00E94F22594
:104F1000B301A20183EE94E00E94F225B501A40141
:104F20008DEC94E00E94F225B701A60187EB94E096
:104F30000E94F2258AE0DF91CF911F910F91FF909F
:104F4000EF90DF90CF90BF90AF909F908F907F9029
:104F50006F905F904F903F902F900C948921DF913C
:104F6000CF911F910F91FF90EF90DF90CF90BF9066
:104F7000AF909F908F907F906F905F904F903F90F9
:104F80002F9008957F928F929F92AF92BF92CF926F
:104F9000DF92EF92FF920F931F93CF93DF93782EC0
:104FA00081110AC0C2E5DAE2FE01849121968823CC
:104FB00019F00E948921F8CFCAE3D3E1FE01849160
:104FC000219681110DC033EEE32E30E1F32EE7017F
:104FD000FE0184912196882331F00E948921F8CF27
:104FE0000E948921EBCF8AE00E9489218AE00E94F9
:104FF0008921711025C0C2E5DAE28E01F8018491A1
:105000000F5F1F4F81110BC007E213E1F80184917C
:105010000F5F1F4F882331F00E948921F7CF0E9434
:105020008921ECCF8091A10C0CE113E1882319F1C7
:105030008AE00E948921FE01849121968111F9CF95
:105040004091910C5091920C6091930C7091940C42
:1050500083E193E10E94F2258AE00E948921711088
:1050600013C0C2E5DAE2FE0184912196882361F043
:105070000E948921F8CFF80184910F5F1F4F882388
:10508000D1F20E948921F7CF4091950C5091960C56
:105090006091970C7091980C87E093E10E94F22543
:1050A0008AE00E94892171100AC0C2E5DAE2FE019D
:1050B00084912196882319F00E948921F8CF40918C
:1050C000990C50919A0C60919B0C70919C0C8BEFF9
:1050D00092E10E94F2258AE00E94892171100AC0A3
:1050E000C2E5DAE2FE0184912196882319F00E943C
:1050F0008921F8CF40919D0C50919E0C60919F0C9E
:105100007091A00C8FEE92E10E94F2258AE00E943D
:1051100089218091A10C811116C071100AC0C2E5CD
:10512000DAE2FE0184912196882319F00E948921F8
:10513000F8CFC4EED2E1FE0184912196882319F0C4
:105140000E948921F8CF71101FC0C2E5DAE28E01FA
:10515000F80184910F5F1F4F81110BC003ED12E125
:10516000F80184910F5F1F4F882331F00E9489213D
:10517000F7CF0E948921ECCFFE01849121968823EC
:1051800019F00E948921F8CF4091320D5091330DD2
:105190006091340D7091350D8BEC92E10E94F225F7
:1051A0004091360D5091370D6091380D7091390D49
:1051B00088EC92E10E94F22540913A0D50913B0D0E
:1051C00060913C0D70913D0D85EC92E10E94F225BD
:1051D00040913E0D50913F0D6091400D7091410DF9
:1051E00082EC92E10E94F2258AE00E9489217110EE
:1051F0001FC0C2E5DAE28E01F80184910F5F1F4FF4
:1052000081110BC004EA12E1F80184910F5F1F4F76
:10521000882331F00E948921F7CF0E948921ECCFA9
:10522000FE0184912196882319F00E948921F8CFEC
:105230004091B20C5091B30C6091B40C7091B50CCC
:105240008BE992E10E94F2254091B60C5091B70C87
:105250006091B80C7091B90C88E992E10E94F22536
:105260004091BA0C5091BB0C6091BC0C7091BD0C7C
:1052700085E992E10E94F2254091BE0C5091BF0C4D
:105280006091C00C7091C10C82E992E10E94F225FC
:105290008AE00E94892171101FC0C2E5DAE28E0106
:1052A000F80184910F5F1F4F81110BC000E712E1DD
:1052B000F80184910F5F1F4F882331F00E948921EC
:1052C000F7CF0E948921ECCFFE018491219688239B
:1052D00019F00E948921F8CF4091A20C5091A30CA3
:1052E0006091A40C7091A50C87E692E10E940E24B7
:1052F0004091A60C5091A70C6091A80C7091A90C3C
:1053000084E692E10E940E244091AA0C5091AB0CCD
:105310006091AC0C7091AD0C81E692E10E940E247C
:105320004091AE0C5091AF0C6091B00C7091B10CEB
:105330008EE592E10E940E248AE00E94892171107C
:105340001FC0C2E5DAE28E01F80184910F5F1F4FA2
:1053500081110BC004E112E1F80184910F5F1F4F2E
:10536000882331F00E948921F7CF0E948921ECCF58
:10537000FE0184912196882319F00E948921F8CF9B
:105380004091CA0C5091CB0C6091CC0C7091CD0C1B
:105390008BE092E10E94F2254091C20C5091C30C27
:1053A0006091C40C7091C50C88E092E10E94F225D6
:1053B0004091C60C5091C70C6091C80C7091C90CFB
:1053C00085E092E10E94F2258AE00E948921711015
:1053D0002AC0C2E5DAE28E01F80184910F5F1F4F07
:1053E000811113C00DEB11E1F80184910F5F1F4F84
:1053F00081110EC000EB11E1F80184910F5F1F4F86
:10540000882349F00E948921F7CF0E948921E4CFA7
:105410000E948921E9CF8AE00E948921FE018491BE
:1054200021968111F9CF4091DC0C5091DD0C6091F7
:10543000DE0C7091DF0C87EA91E10E940E2440910E
:10544000D80C5091D90C6091DA0C7091DB0C84EA85
:1054500091E10E94F2254091D40C5091D50C6091BD
:10546000D60C7091D70C81EA91E10E94F22540910F
:10547000D00C5091D10C6091D20C7091D30C8EE96C
:1054800091E10E94F2258AE00E94892171101FC0DB
:10549000C2E5DAE28E01F80184910F5F1F4F81119E
:1054A0000BC000E911E1F80184910F5F1F4F8823C1
:1054B00031F00E948921F7CF0E948921ECCFFE01B3
:1054C00084912196882319F00E948921F8CF409178
:1054D000E00C5091E10C6091E20C7091E30C87E8D4
:1054E00091E10E94F2254091E40C5091E50C60910D
:1054F000E60C7091E70C84E891E10E94F22540915E
:10550000E80C5091E90C6091EA0C7091EB0C81E889
:1055100091E10E94F2258AE00E94892171101FC04A
:10552000C2E5DAE28E01F80184910F5F1F4F81110D
:105530000BC000E711E1F80184910F5F1F4F882332
:1055400031F00E948921F7CF0E948921ECCFFE0122
:1055500084912196882319F00E948921F8CF00EFC9
:105560001CE0C1E0D0E0BE0187E691E10E94462444
:10557000F80141915191619171918F0184E691E11E
:105580000E94F225F801448555856685778581E678
:1055900091E10E94F225F801448D558D668D778D3D
:1055A0008EE591E10E94F2258AE00E9489212196F0
:1055B000C430D105C1F671101FC0C2E5DAE28E0118
:1055C000F80184910F5F1F4F81110BC00AE411E1B4
:1055D000F80184910F5F1F4F882331F00E948921C9
:1055E000F7CF0E948921ECCFFE0184912196882378
:1055F00019F00E948921F8CF6091F40470E081E4F1
:1056000091E10E9446248AE00E94892180913B0C0E
:1056100090913C0C892B09F44DC020E5C22E2DE061
:10562000D22ED0E0C0E0560110E000E071100EC0B4
:1056300092E5892E9AE2992EF4018491FFEF8F1A58
:105640009F0A882319F00E948921F6CFB80187E3C9
:1056500091E10E944624BE0184E391E10E94462428
:1056600081E3882E81E1982EF4018491FFEF8F1A57
:105670009F0A882319F00E948921F6CFF5016081E5
:1056800071818281938145E00E947C258AE00E949D
:1056900089210F5F1F4FF0E1AF0EB11C04301105DF
:1056A00009F0C4CF219684E0C80ED11CC430D105C6
:1056B00009F0B9CF711018C0C2E5DAE28E01F80125
:1056C00084910F5F1F4F81110CC002E211E1F801BC
:1056D00084910F5F1F4F882309F465C00E948921C0
:1056E000F6CF0E948921EBCFD0E0C0E0BE0189E176
:1056F00091E10E94462440914A0D50914B0D6091DA
:105700004C0D70914D0D86E191E10E94F22524EA45
:105710003CE848E35EE36091460D7091470D80914F
:10572000480D9091490D0E94F2BEAB01BC0183E18E
:1057300091E10E94F22524EA3CE848E35EE36091AF
:10574000420D7091430D8091440D9091450D0E9442
:10575000D5B9AB01BC0180E191E10E94F2258AE05C
:105760000E9489212196C430D10509F0BFCF409114
:10577000360F5091370F6091380F7091390F89EEC5
:1057800090E10E94F2258AE0DF91CF911F910F9165
:10579000FF90EF90DF90CF90BF90AF909F908F9051
:1057A0007F900C94892102E51AE2F80184910F5F41
:1057B0001F4F882319F00E948921F7CF40914A0D8D
:1057C00050914B0D60914C0D70914D0D87E091E122
:1057D0000E94F22524EA3CE848E35EE36091460D2E
:1057E0007091470D8091480D9091490D0E94F2BE35
:1057F000AB01BC0184E091E10E94F22524EA3CE87F
:1058000048E35EE36091420D7091430D8091440D39
:105810009091450D0E94D5B9AB01BC0181E091E1A9
:105820000E94F2258AE00E94892102E51AE2F8012D
:1058300084910F5F1F4F81110BC002EF10E1F8013F
:1058400084910F5F1F4F882341F00E948921F7CF79
:105850000E948921ECCF0E948921F7018491FFEFFA
:10586000EF1AFF0A8111F7CF00EE10E1F8018491E1
:105870000F5F1F4F882319F00E948921F7CFFE0187
:1058800084912196882309F472CF0E948921F7CF51
:10589000CF93DF93C9E7DFE0FE018491219688234F
:1058A00019F00E948921F8CFCCEEDCE080E20E9462
:1058B0008921699179918991999142E00E947C2591
:1058C0008CE20E9489216C857D858E859F8542E0D2
:1058D0000E947C258CE20E9489216C8D7D8D8E8DAD
:1058E0009F8D42E00E947C25FCE0CC3FDF07F1F673
:1058F0008AE0DF91CF910C9489214F925F926F9251
:105900007F928F929F92AF92BF92CF92DF92EF924F
:10591000FF92CF93DF93C1ECDAE0FE0184912196F0
:10592000882319F00E948921F8CF20914A0F3091E5
:105930004B0F40914C0F50914D0F60913A0F709169
:105940003B0F80913C0F90913D0F0E94F8BD42E0CB
:105950000E947C25CDEBDAE0FE018491219688231C
:1059600019F00E948921F8CF20914E0F30914F0FEE
:105970004091500F5091510F60913E0F70913F0F29
:105980008091400F9091410F0E94F8BD42E00E942B
:105990007C25C9EBDAE0FE0184912196882319F079
:1059A0000E948921F8CF2091520F3091530F4091DE
:1059B000540F5091550F6091420F7091430F809199
:1059C000440F9091450F0E94F8BD42E00E947C2553
:1059D000C5EBDAE0FE0184912196882319F00E943C
:1059E0008921F8CF6091460F7091470F8091480F41
:1059F0009091490F42E00E947C2580916F00982F82
:105A0000927081FF05C080916F008D7F80936F0041
:105A10004090430C5090440C6090450C7090460CA4
:105A20008090470C9090480CA090490CB0904A0C84
:105A3000C0904B0CD0904C0CE0904D0CF0904E0C64
:105A4000992329F080916F00826080936F00CBEAE8
:105A5000DAE0FE0184912196882319F00E948921C1
:105A6000F8CFC301B2010E942A24C7EADAE0FE019E
:105A700084912196882319F00E948921F8CFC501CD
:105A8000B4010E942A24C3EADAE0FE01849121963F
:105A9000882319F00E948921F8CFC701B6010E941E
:105AA0002A248AE0DF91CF91FF90EF90DF90CF9092
:105AB000BF90AF909F908F907F906F905F904F902E
:105AC0000C9489217F928F929F92AF92BF92CF9236
:105AD000DF92EF92FF920F931F93CF93DF93C9E76B
